{
  "contractName": "Clinic",
  "abi": [
    {
      "inputs": [
        {
          "internalType": "address",
          "name": "DoctorContractAddress",
          "type": "address"
        },
        {
          "internalType": "address",
          "name": "PatientContractAddress",
          "type": "address"
        }
      ],
      "stateMutability": "nonpayable",
      "type": "constructor"
    },
    {
      "anonymous": false,
      "inputs": [
        {
          "indexed": true,
          "internalType": "address",
          "name": "clinicId",
          "type": "address"
        },
        {
          "indexed": false,
          "internalType": "string",
          "name": "clinicName",
          "type": "string"
        }
      ],
      "name": "ClinicAdded",
      "type": "event"
    },
    {
      "anonymous": false,
      "inputs": [
        {
          "indexed": true,
          "internalType": "address",
          "name": "doctorId",
          "type": "address"
        }
      ],
      "name": "DoctorAdded",
      "type": "event"
    },
    {
      "anonymous": false,
      "inputs": [
        {
          "indexed": true,
          "internalType": "address",
          "name": "patientId",
          "type": "address"
        }
      ],
      "name": "PatientAdded",
      "type": "event"
    },
    {
      "inputs": [
        {
          "internalType": "address",
          "name": "",
          "type": "address"
        }
      ],
      "name": "clinics",
      "outputs": [
        {
          "internalType": "address",
          "name": "id",
          "type": "address"
        },
        {
          "internalType": "string",
          "name": "name",
          "type": "string"
        },
        {
          "internalType": "string",
          "name": "location",
          "type": "string"
        },
        {
          "internalType": "string",
          "name": "password",
          "type": "string"
        }
      ],
      "stateMutability": "view",
      "type": "function",
      "constant": true
    },
    {
      "inputs": [
        {
          "internalType": "string",
          "name": "_clinicName",
          "type": "string"
        },
        {
          "internalType": "address",
          "name": "_address",
          "type": "address"
        },
        {
          "internalType": "string",
          "name": "_location",
          "type": "string"
        },
        {
          "internalType": "string",
          "name": "_password",
          "type": "string"
        }
      ],
      "name": "addClinic",
      "outputs": [],
      "stateMutability": "nonpayable",
      "type": "function"
    },
    {
      "inputs": [
        {
          "internalType": "address",
          "name": "clinicid",
          "type": "address"
        },
        {
          "internalType": "string",
          "name": "_password",
          "type": "string"
        }
      ],
      "name": "checkClinic",
      "outputs": [
        {
          "internalType": "bool",
          "name": "",
          "type": "bool"
        }
      ],
      "stateMutability": "view",
      "type": "function",
      "constant": true
    },
    {
      "inputs": [
        {
          "internalType": "address",
          "name": "_doctorId",
          "type": "address"
        },
        {
          "internalType": "string",
          "name": "_doctorName",
          "type": "string"
        },
        {
          "internalType": "string",
          "name": "_clinicName",
          "type": "string"
        },
        {
          "internalType": "address",
          "name": "_clinicAddress",
          "type": "address"
        },
        {
          "internalType": "string",
          "name": "_dept",
          "type": "string"
        },
        {
          "internalType": "string",
          "name": "_password",
          "type": "string"
        }
      ],
      "name": "clinicAddDoctor",
      "outputs": [],
      "stateMutability": "nonpayable",
      "type": "function"
    },
    {
      "inputs": [
        {
          "internalType": "address",
          "name": "_patientId",
          "type": "address"
        },
        {
          "internalType": "string",
          "name": "_name",
          "type": "string"
        },
        {
          "internalType": "address",
          "name": "_clinicID",
          "type": "address"
        },
        {
          "internalType": "string",
          "name": "_department",
          "type": "string"
        },
        {
          "internalType": "string",
          "name": "_password",
          "type": "string"
        }
      ],
      "name": "clinicAddPatient",
      "outputs": [],
      "stateMutability": "nonpayable",
      "type": "function"
    },
    {
      "inputs": [],
      "name": "getRegisteredClinics",
      "outputs": [
        {
          "components": [
            {
              "internalType": "address",
              "name": "id",
              "type": "address"
            },
            {
              "internalType": "string",
              "name": "name",
              "type": "string"
            },
            {
              "internalType": "string",
              "name": "location",
              "type": "string"
            },
            {
              "internalType": "string",
              "name": "password",
              "type": "string"
            }
          ],
          "internalType": "struct Clinic.ClinicDetails[]",
          "name": "",
          "type": "tuple[]"
        }
      ],
      "stateMutability": "view",
      "type": "function",
      "constant": true
    },
    {
      "inputs": [
        {
          "internalType": "string",
          "name": "location",
          "type": "string"
        }
      ],
      "name": "getRegisteredClinicsByLocation",
      "outputs": [
        {
          "components": [
            {
              "internalType": "address",
              "name": "id",
              "type": "address"
            },
            {
              "internalType": "string",
              "name": "name",
              "type": "string"
            },
            {
              "internalType": "string",
              "name": "location",
              "type": "string"
            },
            {
              "internalType": "string",
              "name": "password",
              "type": "string"
            }
          ],
          "internalType": "struct Clinic.ClinicDetails[]",
          "name": "",
          "type": "tuple[]"
        }
      ],
      "stateMutability": "view",
      "type": "function",
      "constant": true
    },
    {
      "inputs": [
        {
          "internalType": "address",
          "name": "account",
          "type": "address"
        }
      ],
      "name": "doctorNaturalJoinPatient",
      "outputs": [
        {
          "components": [
            {
              "internalType": "string",
              "name": "doctorName",
              "type": "string"
            },
            {
              "internalType": "address",
              "name": "doctorID",
              "type": "address"
            },
            {
              "internalType": "string",
              "name": "patientName",
              "type": "string"
            },
            {
              "internalType": "address",
              "name": "patientID",
              "type": "address"
            },
            {
              "internalType": "string",
              "name": "clinicName",
              "type": "string"
            },
            {
              "internalType": "string",
              "name": "department",
              "type": "string"
            }
          ],
          "internalType": "struct Clinic.doctorNaturalJoinPatientResult[]",
          "name": "",
          "type": "tuple[]"
        }
      ],
      "stateMutability": "view",
      "type": "function",
      "constant": true
    }
  ],
  "bytecode": "0x60806040523480156200001157600080fd5b50604051620031573803806200315783398181016040528101906200003791906200012a565b816000806101000a81548173ffffffffffffffffffffffffffffffffffffffff021916908373ffffffffffffffffffffffffffffffffffffffff16021790555080600160006101000a81548173ffffffffffffffffffffffffffffffffffffffff021916908373ffffffffffffffffffffffffffffffffffffffff160217905550505062000171565b600080fd5b600073ffffffffffffffffffffffffffffffffffffffff82169050919050565b6000620000f282620000c5565b9050919050565b6200010481620000e5565b81146200011057600080fd5b50565b6000815190506200012481620000f9565b92915050565b60008060408385031215620001445762000143620000c0565b5b6000620001548582860162000113565b9250506020620001678582860162000113565b9150509250929050565b612fd680620001816000396000f3fe608060405234801561001057600080fd5b50600436106100885760003560e01c80636757ea451161005b5780636757ea45146101505780636d69849c1461016c578063a8c52df614610188578063da19758a146101a457610088565b80631a403fbc1461008d578063212b72c3146100bd5780635a2a7079146100ed578063646077511461011d575b600080fd5b6100a760048036038101906100a29190611c1a565b6101c2565b6040516100b49190611e56565b60405180910390f35b6100d760048036038101906100d29190611ea4565b6105f0565b6040516100e49190611f1b565b60405180910390f35b61010760048036038101906101029190611f36565b610734565b60405161011491906120c3565b60405180910390f35b61013760048036038101906101329190611f36565b610e7e565b604051610147949392919061213e565b60405180910390f35b61016a60048036038101906101659190612198565b611066565b005b61018660048036038101906101819190612267565b61121b565b005b6101a2600480360381019061019d9190612322565b6114aa565b005b6101ac611661565b6040516101b99190611e56565b60405180910390f35b6060600060038054905067ffffffffffffffff8111156101e5576101e4611aef565b5b60405190808252806020026020018201604052801561021e57816020015b61020b61199d565b8152602001906001900390816102035790505b5090506000805b6003805490508110156105d85784604051602001610243919061245b565b60405160208183030381529060405280519060200120600260006003848154811061027157610270612472565b5b9060005260206000200160009054906101000a900473ffffffffffffffffffffffffffffffffffffffff1673ffffffffffffffffffffffffffffffffffffffff1673ffffffffffffffffffffffffffffffffffffffff1681526020019081526020016000206002016040516020016102e99190612599565b60405160208183030381529060405280519060200120036105c557600260006003838154811061031c5761031b612472565b5b9060005260206000200160009054906101000a900473ffffffffffffffffffffffffffffffffffffffff1673ffffffffffffffffffffffffffffffffffffffff1673ffffffffffffffffffffffffffffffffffffffff1681526020019081526020016000206040518060800160405290816000820160009054906101000a900473ffffffffffffffffffffffffffffffffffffffff1673ffffffffffffffffffffffffffffffffffffffff1673ffffffffffffffffffffffffffffffffffffffff1681526020016001820180546103f2906124d0565b80601f016020809104026020016040519081016040528092919081815260200182805461041e906124d0565b801561046b5780601f106104405761010080835404028352916020019161046b565b820191906000526020600020905b81548152906001019060200180831161044e57829003601f168201915b50505050508152602001600282018054610484906124d0565b80601f01602080910402602001604051908101604052809291908181526020018280546104b0906124d0565b80156104fd5780601f106104d2576101008083540402835291602001916104fd565b820191906000526020600020905b8154815290600101906020018083116104e057829003601f168201915b50505050508152602001600382018054610516906124d0565b80601f0160208091040260200160405190810160405280929190818152602001828054610542906124d0565b801561058f5780601f106105645761010080835404028352916020019161058f565b820191906000526020600020905b81548152906001019060200180831161057257829003601f168201915b5050505050815250508383815181106105ab576105aa612472565b5b602002602001018190525081806105c1906125e9565b9250505b80806105d0906125e9565b915050610225565b5081518110156105e6578082525b8192505050919050565b60008273ffffffffffffffffffffffffffffffffffffffff16600260008573ffffffffffffffffffffffffffffffffffffffff1673ffffffffffffffffffffffffffffffffffffffff16815260200190815260200160002060000160009054906101000a900473ffffffffffffffffffffffffffffffffffffffff1673ffffffffffffffffffffffffffffffffffffffff1614801561071b57508160405160200161069b919061245b565b60405160208183030381529060405280519060200120600260008573ffffffffffffffffffffffffffffffffffffffff1673ffffffffffffffffffffffffffffffffffffffff1681526020019081526020016000206003016040516020016107039190612599565b60405160208183030381529060405280519060200120145b15610729576001905061072e565b600090505b92915050565b606060008060009054906101000a900473ffffffffffffffffffffffffffffffffffffffff1690506000600160009054906101000a900473ffffffffffffffffffffffffffffffffffffffff16905060008273ffffffffffffffffffffffffffffffffffffffff16634852ad5c866040518263ffffffff1660e01b81526004016107be9190612631565b600060405180830381865afa1580156107db573d6000803e3d6000fd5b505050506040513d6000823e3d601f19601f8201168201806040525081019061080491906128d1565b90506000815167ffffffffffffffff81111561082357610822611aef565b5b60405190808252806020026020018201604052801561085c57816020015b6108496119db565b8152602001906001900390816108415790505b50905060005b825181101561096f576040518060a0016040528084838151811061088957610888612472565b5b60200260200101516000015173ffffffffffffffffffffffffffffffffffffffff1681526020018483815181106108c3576108c2612472565b5b60200260200101516020015181526020018483815181106108e7576108e6612472565b5b602002602001015160400151815260200184838151811061090b5761090a612472565b5b602002602001015160800151815260200184838151811061092f5761092e612472565b5b602002602001015160a0015181525082828151811061095157610950612472565b5b60200260200101819052508080610967906125e9565b915050610862565b5060008373ffffffffffffffffffffffffffffffffffffffff1663acc9d502886040518263ffffffff1660e01b81526004016109ab9190612631565b600060405180830381865afa1580156109c8573d6000803e3d6000fd5b505050506040513d6000823e3d601f19601f820116820180604052508101906109f19190612adb565b90506000815167ffffffffffffffff811115610a1057610a0f611aef565b5b604051908082528060200260200182016040528015610a4957816020015b610a36611a20565b815260200190600190039081610a2e5790505b50905060005b8251811015610b38576040518060800160405280848381518110610a7657610a75612472565b5b60200260200101516000015173ffffffffffffffffffffffffffffffffffffffff168152602001848381518110610ab057610aaf612472565b5b6020026020010151602001518152602001848381518110610ad457610ad3612472565b5b6020026020010151606001518152602001848381518110610af857610af7612472565b5b602002602001015160800151815250828281518110610b1a57610b19612472565b5b60200260200101819052508080610b30906125e9565b915050610a4f565b506000835190506000825190506000808284610b549190612b24565b67ffffffffffffffff811115610b6d57610b6c611aef565b5b604051908082528060200260200182016040528015610ba657816020015b610b93611a5e565b815260200190600190039081610b8b5790505b50905060005b84811015610e685760005b84811015610e5457868181518110610bd257610bd1612472565b5b602002602001015160400151604051602001610bee919061245b565b60405160208183030381529060405280519060200120898381518110610c1757610c16612472565b5b602002602001015160600151604051602001610c33919061245b565b6040516020818303038152906040528051906020012003610e4157888281518110610c6157610c60612472565b5b602002602001015160000151838581518110610c8057610c7f612472565b5b60200260200101516020019073ffffffffffffffffffffffffffffffffffffffff16908173ffffffffffffffffffffffffffffffffffffffff1681525050888281518110610cd157610cd0612472565b5b602002602001015160200151838581518110610cf057610cef612472565b5b602002602001015160000181905250888281518110610d1257610d11612472565b5b602002602001015160400151838581518110610d3157610d30612472565b5b602002602001015160800181905250868181518110610d5357610d52612472565b5b602002602001015160000151838581518110610d7257610d71612472565b5b60200260200101516060019073ffffffffffffffffffffffffffffffffffffffff16908173ffffffffffffffffffffffffffffffffffffffff1681525050868181518110610dc357610dc2612472565b5b602002602001015160200151838581518110610de257610de1612472565b5b602002602001015160400181905250868181518110610e0457610e03612472565b5b602002602001015160400151838581518110610e2357610e22612472565b5b602002602001015160a001819052508380610e3d906125e9565b9450505b8080610e4c906125e9565b915050610bb7565b508080610e60906125e9565b915050610bac565b50818152809a5050505050505050505050919050565b60026020528060005260406000206000915090508060000160009054906101000a900473ffffffffffffffffffffffffffffffffffffffff1690806001018054610ec7906124d0565b80601f0160208091040260200160405190810160405280929190818152602001828054610ef3906124d0565b8015610f405780601f10610f1557610100808354040283529160200191610f40565b820191906000526020600020905b815481529060010190602001808311610f2357829003601f168201915b505050505090806002018054610f55906124d0565b80601f0160208091040260200160405190810160405280929190818152602001828054610f81906124d0565b8015610fce5780601f10610fa357610100808354040283529160200191610fce565b820191906000526020600020905b815481529060010190602001808311610fb157829003601f168201915b505050505090806003018054610fe3906124d0565b80601f016020809104026020016040519081016040528092919081815260200182805461100f906124d0565b801561105c5780601f106110315761010080835404028352916020019161105c565b820191906000526020600020905b81548152906001019060200180831161103f57829003601f168201915b5050505050905084565b3373ffffffffffffffffffffffffffffffffffffffff16600260003373ffffffffffffffffffffffffffffffffffffffff1673ffffffffffffffffffffffffffffffffffffffff16815260200190815260200160002060000160009054906101000a900473ffffffffffffffffffffffffffffffffffffffff1673ffffffffffffffffffffffffffffffffffffffff1614611136576040517f08c379a000000000000000000000000000000000000000000000000000000000815260040161112d90612ba4565b60405180910390fd5b6000600160009054906101000a900473ffffffffffffffffffffffffffffffffffffffff1690508073ffffffffffffffffffffffffffffffffffffffff1663e6dc0d8d87878787876040518663ffffffff1660e01b815260040161119e959493929190612bc4565b600060405180830381600087803b1580156111b857600080fd5b505af11580156111cc573d6000803e3d6000fd5b505050508573ffffffffffffffffffffffffffffffffffffffff167fa58cff07db0adda3ab7a40bd2f18ab57210bf38391a52ffd2e8eee6b8bdec71a60405160405180910390a2505050505050565b8273ffffffffffffffffffffffffffffffffffffffff16600260008573ffffffffffffffffffffffffffffffffffffffff1673ffffffffffffffffffffffffffffffffffffffff16815260200190815260200160002060000160009054906101000a900473ffffffffffffffffffffffffffffffffffffffff1673ffffffffffffffffffffffffffffffffffffffff16036112eb576040517f08c379a00000000000000000000000000000000000000000000000000000000081526004016112e290612c78565b60405180910390fd5b600060405180608001604052808573ffffffffffffffffffffffffffffffffffffffff16815260200186815260200184815260200183815250905080600260008673ffffffffffffffffffffffffffffffffffffffff1673ffffffffffffffffffffffffffffffffffffffff16815260200190815260200160002060008201518160000160006101000a81548173ffffffffffffffffffffffffffffffffffffffff021916908373ffffffffffffffffffffffffffffffffffffffff16021790555060208201518160010190816113c29190612e2f565b5060408201518160020190816113d89190612e2f565b5060608201518160030190816113ee9190612e2f565b509050506003849080600181540180825580915050600190039060005260206000200160009091909190916101000a81548173ffffffffffffffffffffffffffffffffffffffff021916908373ffffffffffffffffffffffffffffffffffffffff1602179055508373ffffffffffffffffffffffffffffffffffffffff167f8a7395e5a96124fa64fb295b28840b4404661f0a1888a597477e870fba2360538660405161149b9190612f01565b60405180910390a25050505050565b3373ffffffffffffffffffffffffffffffffffffffff16600260003373ffffffffffffffffffffffffffffffffffffffff1673ffffffffffffffffffffffffffffffffffffffff16815260200190815260200160002060000160009054906101000a900473ffffffffffffffffffffffffffffffffffffffff1673ffffffffffffffffffffffffffffffffffffffff161461157a576040517f08c379a000000000000000000000000000000000000000000000000000000000815260040161157190612ba4565b60405180910390fd5b60008060009054906101000a900473ffffffffffffffffffffffffffffffffffffffff1690508073ffffffffffffffffffffffffffffffffffffffff1663ce948a1b8888888888886040518763ffffffff1660e01b81526004016115e396959493929190612f23565b600060405180830381600087803b1580156115fd57600080fd5b505af1158015611611573d6000803e3d6000fd5b505050508673ffffffffffffffffffffffffffffffffffffffff167f69908b2e63170aa89ef89719bbe3b4c92cccc38653968ab25f4464eff7c28ac860405160405180910390a250505050505050565b6060600060038054905067ffffffffffffffff81111561168457611683611aef565b5b6040519080825280602002602001820160405280156116bd57816020015b6116aa61199d565b8152602001906001900390816116a25790505b50905060005b6003805490508110156119955760026000600383815481106116e8576116e7612472565b5b9060005260206000200160009054906101000a900473ffffffffffffffffffffffffffffffffffffffff1673ffffffffffffffffffffffffffffffffffffffff1673ffffffffffffffffffffffffffffffffffffffff1681526020019081526020016000206040518060800160405290816000820160009054906101000a900473ffffffffffffffffffffffffffffffffffffffff1673ffffffffffffffffffffffffffffffffffffffff1673ffffffffffffffffffffffffffffffffffffffff1681526020016001820180546117be906124d0565b80601f01602080910402602001604051908101604052809291908181526020018280546117ea906124d0565b80156118375780601f1061180c57610100808354040283529160200191611837565b820191906000526020600020905b81548152906001019060200180831161181a57829003601f168201915b50505050508152602001600282018054611850906124d0565b80601f016020809104026020016040519081016040528092919081815260200182805461187c906124d0565b80156118c95780601f1061189e576101008083540402835291602001916118c9565b820191906000526020600020905b8154815290600101906020018083116118ac57829003601f168201915b505050505081526020016003820180546118e2906124d0565b80601f016020809104026020016040519081016040528092919081815260200182805461190e906124d0565b801561195b5780601f106119305761010080835404028352916020019161195b565b820191906000526020600020905b81548152906001019060200180831161193e57829003601f168201915b50505050508152505082828151811061197757611976612472565b5b6020026020010181905250808061198d906125e9565b9150506116c3565b508091505090565b6040518060800160405280600073ffffffffffffffffffffffffffffffffffffffff1681526020016060815260200160608152602001606081525090565b6040518060a00160405280600073ffffffffffffffffffffffffffffffffffffffff168152602001606081526020016060815260200160608152602001606081525090565b6040518060800160405280600073ffffffffffffffffffffffffffffffffffffffff1681526020016060815260200160608152602001606081525090565b6040518060c0016040528060608152602001600073ffffffffffffffffffffffffffffffffffffffff16815260200160608152602001600073ffffffffffffffffffffffffffffffffffffffff16815260200160608152602001606081525090565b6000604051905090565b600080fd5b600080fd5b600080fd5b600080fd5b6000601f19601f8301169050919050565b7f4e487b7100000000000000000000000000000000000000000000000000000000600052604160045260246000fd5b611b2782611ade565b810181811067ffffffffffffffff82111715611b4657611b45611aef565b5b80604052505050565b6000611b59611ac0565b9050611b658282611b1e565b919050565b600067ffffffffffffffff821115611b8557611b84611aef565b5b611b8e82611ade565b9050602081019050919050565b82818337600083830152505050565b6000611bbd611bb884611b6a565b611b4f565b905082815260208101848484011115611bd957611bd8611ad9565b5b611be4848285611b9b565b509392505050565b600082601f830112611c0157611c00611ad4565b5b8135611c11848260208601611baa565b91505092915050565b600060208284031215611c3057611c2f611aca565b5b600082013567ffffffffffffffff811115611c4e57611c4d611acf565b5b611c5a84828501611bec565b91505092915050565b600081519050919050565b600082825260208201905092915050565b6000819050602082019050919050565b600073ffffffffffffffffffffffffffffffffffffffff82169050919050565b6000611cba82611c8f565b9050919050565b611cca81611caf565b82525050565b600081519050919050565b600082825260208201905092915050565b60005b83811015611d0a578082015181840152602081019050611cef565b60008484015250505050565b6000611d2182611cd0565b611d2b8185611cdb565b9350611d3b818560208601611cec565b611d4481611ade565b840191505092915050565b6000608083016000830151611d676000860182611cc1565b5060208301518482036020860152611d7f8282611d16565b91505060408301518482036040860152611d998282611d16565b91505060608301518482036060860152611db38282611d16565b9150508091505092915050565b6000611dcc8383611d4f565b905092915050565b6000602082019050919050565b6000611dec82611c63565b611df68185611c6e565b935083602082028501611e0885611c7f565b8060005b85811015611e445784840389528151611e258582611dc0565b9450611e3083611dd4565b925060208a01995050600181019050611e0c565b50829750879550505050505092915050565b60006020820190508181036000830152611e708184611de1565b905092915050565b611e8181611caf565b8114611e8c57600080fd5b50565b600081359050611e9e81611e78565b92915050565b60008060408385031215611ebb57611eba611aca565b5b6000611ec985828601611e8f565b925050602083013567ffffffffffffffff811115611eea57611ee9611acf565b5b611ef685828601611bec565b9150509250929050565b60008115159050919050565b611f1581611f00565b82525050565b6000602082019050611f306000830184611f0c565b92915050565b600060208284031215611f4c57611f4b611aca565b5b6000611f5a84828501611e8f565b91505092915050565b600081519050919050565b600082825260208201905092915050565b6000819050602082019050919050565b600060c0830160008301518482036000860152611fac8282611d16565b9150506020830151611fc16020860182611cc1565b5060408301518482036040860152611fd98282611d16565b9150506060830151611fee6060860182611cc1565b50608083015184820360808601526120068282611d16565b91505060a083015184820360a08601526120208282611d16565b9150508091505092915050565b60006120398383611f8f565b905092915050565b6000602082019050919050565b600061205982611f63565b6120638185611f6e565b93508360208202850161207585611f7f565b8060005b858110156120b15784840389528151612092858261202d565b945061209d83612041565b925060208a01995050600181019050612079565b50829750879550505050505092915050565b600060208201905081810360008301526120dd818461204e565b905092915050565b6120ee81611caf565b82525050565b600082825260208201905092915050565b600061211082611cd0565b61211a81856120f4565b935061212a818560208601611cec565b61213381611ade565b840191505092915050565b600060808201905061215360008301876120e5565b81810360208301526121658186612105565b905081810360408301526121798185612105565b9050818103606083015261218d8184612105565b905095945050505050565b600080600080600060a086880312156121b4576121b3611aca565b5b60006121c288828901611e8f565b955050602086013567ffffffffffffffff8111156121e3576121e2611acf565b5b6121ef88828901611bec565b945050604061220088828901611e8f565b935050606086013567ffffffffffffffff81111561222157612220611acf565b5b61222d88828901611bec565b925050608086013567ffffffffffffffff81111561224e5761224d611acf565b5b61225a88828901611bec565b9150509295509295909350565b6000806000806080858703121561228157612280611aca565b5b600085013567ffffffffffffffff81111561229f5761229e611acf565b5b6122ab87828801611bec565b94505060206122bc87828801611e8f565b935050604085013567ffffffffffffffff8111156122dd576122dc611acf565b5b6122e987828801611bec565b925050606085013567ffffffffffffffff81111561230a57612309611acf565b5b61231687828801611bec565b91505092959194509250565b60008060008060008060c0878903121561233f5761233e611aca565b5b600061234d89828a01611e8f565b965050602087013567ffffffffffffffff81111561236e5761236d611acf565b5b61237a89828a01611bec565b955050604087013567ffffffffffffffff81111561239b5761239a611acf565b5b6123a789828a01611bec565b94505060606123b889828a01611e8f565b935050608087013567ffffffffffffffff8111156123d9576123d8611acf565b5b6123e589828a01611bec565b92505060a087013567ffffffffffffffff81111561240657612405611acf565b5b61241289828a01611bec565b9150509295509295509295565b600081905092915050565b600061243582611cd0565b61243f818561241f565b935061244f818560208601611cec565b80840191505092915050565b6000612467828461242a565b915081905092915050565b7f4e487b7100000000000000000000000000000000000000000000000000000000600052603260045260246000fd5b7f4e487b7100000000000000000000000000000000000000000000000000000000600052602260045260246000fd5b600060028204905060018216806124e857607f821691505b6020821081036124fb576124fa6124a1565b5b50919050565b60008190508160005260206000209050919050565b60008154612523816124d0565b61252d818661241f565b94506001821660008114612548576001811461255d57612590565b60ff1983168652811515820286019350612590565b61256685612501565b60005b8381101561258857815481890152600182019150602081019050612569565b838801955050505b50505092915050565b60006125a58284612516565b915081905092915050565b7f4e487b7100000000000000000000000000000000000000000000000000000000600052601160045260246000fd5b6000819050919050565b60006125f4826125df565b91507fffffffffffffffffffffffffffffffffffffffffffffffffffffffffffffffff8203612626576126256125b0565b5b600182019050919050565b600060208201905061264660008301846120e5565b92915050565b600067ffffffffffffffff82111561266757612666611aef565b5b602082029050602081019050919050565b600080fd5b600080fd5b600080fd5b60008151905061269681611e78565b92915050565b60006126af6126aa84611b6a565b611b4f565b9050828152602081018484840111156126cb576126ca611ad9565b5b6126d6848285611cec565b509392505050565b600082601f8301126126f3576126f2611ad4565b5b815161270384826020860161269c565b91505092915050565b600060c082840312156127225761272161267d565b5b61272c60c0611b4f565b9050600061273c84828501612687565b600083015250602082015167ffffffffffffffff8111156127605761275f612682565b5b61276c848285016126de565b602083015250604082015167ffffffffffffffff8111156127905761278f612682565b5b61279c848285016126de565b60408301525060606127b084828501612687565b606083015250608082015167ffffffffffffffff8111156127d4576127d3612682565b5b6127e0848285016126de565b60808301525060a082015167ffffffffffffffff81111561280457612803612682565b5b612810848285016126de565b60a08301525092915050565b600061282f61282a8461264c565b611b4f565b9050808382526020820190506020840283018581111561285257612851612678565b5b835b8181101561289957805167ffffffffffffffff81111561287757612876611ad4565b5b808601612884898261270c565b85526020850194505050602081019050612854565b5050509392505050565b600082601f8301126128b8576128b7611ad4565b5b81516128c884826020860161281c565b91505092915050565b6000602082840312156128e7576128e6611aca565b5b600082015167ffffffffffffffff81111561290557612904611acf565b5b612911848285016128a3565b91505092915050565b600067ffffffffffffffff82111561293557612934611aef565b5b602082029050602081019050919050565b600060a0828403121561295c5761295b61267d565b5b61296660a0611b4f565b9050600061297684828501612687565b600083015250602082015167ffffffffffffffff81111561299a57612999612682565b5b6129a6848285016126de565b60208301525060406129ba84828501612687565b604083015250606082015167ffffffffffffffff8111156129de576129dd612682565b5b6129ea848285016126de565b606083015250608082015167ffffffffffffffff811115612a0e57612a0d612682565b5b612a1a848285016126de565b60808301525092915050565b6000612a39612a348461291a565b611b4f565b90508083825260208201905060208402830185811115612a5c57612a5b612678565b5b835b81811015612aa357805167ffffffffffffffff811115612a8157612a80611ad4565b5b808601612a8e8982612946565b85526020850194505050602081019050612a5e565b5050509392505050565b600082601f830112612ac257612ac1611ad4565b5b8151612ad2848260208601612a26565b91505092915050565b600060208284031215612af157612af0611aca565b5b600082015167ffffffffffffffff811115612b0f57612b0e611acf565b5b612b1b84828501612aad565b91505092915050565b6000612b2f826125df565b9150612b3a836125df565b9250828201905080821115612b5257612b516125b0565b5b92915050565b7f436c696e696320646f6573206e6f742065786973740000000000000000000000600082015250565b6000612b8e6015836120f4565b9150612b9982612b58565b602082019050919050565b60006020820190508181036000830152612bbd81612b81565b9050919050565b600060a082019050612bd960008301886120e5565b8181036020830152612beb8187612105565b9050612bfa60408301866120e5565b8181036060830152612c0c8185612105565b90508181036080830152612c208184612105565b90509695505050505050565b7f5468697320636c696e696320616c7265616479206578697374732e0000000000600082015250565b6000612c62601b836120f4565b9150612c6d82612c2c565b602082019050919050565b60006020820190508181036000830152612c9181612c55565b9050919050565b60006020601f8301049050919050565b600082821b905092915050565b600060088302612ce57fffffffffffffffffffffffffffffffffffffffffffffffffffffffffffffffff82612ca8565b612cef8683612ca8565b95508019841693508086168417925050509392505050565b6000819050919050565b6000612d2c612d27612d22846125df565b612d07565b6125df565b9050919050565b6000819050919050565b612d4683612d11565b612d5a612d5282612d33565b848454612cb5565b825550505050565b600090565b612d6f612d62565b612d7a818484612d3d565b505050565b5b81811015612d9e57612d93600082612d67565b600181019050612d80565b5050565b601f821115612de357612db481612501565b612dbd84612c98565b81016020851015612dcc578190505b612de0612dd885612c98565b830182612d7f565b50505b505050565b600082821c905092915050565b6000612e0660001984600802612de8565b1980831691505092915050565b6000612e1f8383612df5565b9150826002028217905092915050565b612e3882611cd0565b67ffffffffffffffff811115612e5157612e50611aef565b5b612e5b82546124d0565b612e66828285612da2565b600060209050601f831160018114612e995760008415612e87578287015190505b612e918582612e13565b865550612ef9565b601f198416612ea786612501565b60005b82811015612ecf57848901518255600182019150602085019450602081019050612eaa565b86831015612eec5784890151612ee8601f891682612df5565b8355505b6001600288020188555050505b505050505050565b60006020820190508181036000830152612f1b8184612105565b905092915050565b600060c082019050612f3860008301896120e5565b8181036020830152612f4a8188612105565b90508181036040830152612f5e8187612105565b9050612f6d60608301866120e5565b8181036080830152612f7f8185612105565b905081810360a0830152612f938184612105565b905097965050505050505056fea26469706673582212207201ef93316fc82a9894ebc92a2b41dd217c8ce95ebc65fbc6ddaebe65035bff64736f6c63430008110033",
  "immutableReferences": {},
  "source": "// SPDX-License-Identifier: MIT\npragma solidity >= 0.4.22 <0.9.0;\n\n// Using Doctor and Patient Contracts here as well\nimport \"./Doctor.sol\";\nimport \"./Patient.sol\";\n\n// Let's inherit from both the Doctor and Patient Smart Contracts\ncontract Clinic {\n    // So to deploy Clinic contract first the doctor and patient contracts should have been deployed first.\n    // The Clinic constructor takes in as input the doctorContract and patientContract address\n    address doctorContractAddress;\n    address patientContractAddress;\n\n    constructor(\n      address DoctorContractAddress,\n      address PatientContractAddress\n    ){\n        doctorContractAddress = DoctorContractAddress;\n        patientContractAddress = PatientContractAddress;\n    }\n\n    // This structure would capture the clinic entity\n    struct ClinicDetails {\n        address id;\n        string name;\n        string location;\n        string password;\n    }\n\n    struct doctorNaturalJoinPatientResult {\n        string doctorName;\n        address doctorID;\n        string patientName;\n        address patientID;\n        string clinicName;\n        string department;\n    }\n\n    struct DoctorDetails {\n        address id;\n        string name;\n        string clinicName;\n        string department;\n        string password;\n    }\n\n    struct Record { \n        string cid;\n        address patientId;\n        address doctorId;\n        string patientName;\n        string doctorName;\n        string symptoms;\n        string diagnostic;\n        string department;\n        uint256 timeAdded;\n    }\n\n    struct PatientDetails {\n        address id;\n        string name;\n        string department;\n        string password;\n    }\n\n    \n    // mapping(string => uint) countHelper; \n\n    // // the below structure is needed to perform the natural join operation\n    // struct doctorDetails {\n    //     address id;\n    //     string name;\n    //     string clinicName;\n    //     string department;\n    //     string password;\n    // }\n\n    // // The following structure hold the result of the doctor natural join patient table\n    // struct doctorNaturalJoinPatientResult {\n    //     string doctorName;\n    //     address doctorID;\n    //     string patientName;\n    //     address patientID;\n    //     string department;\n    // }\n\n    // All the data structures used for storing clinic details defined \n    mapping (address => ClinicDetails) public clinics;\n    address[] clinicAddress;\n    \n    // All the events to be emitted here\n    event ClinicAdded(address indexed clinicId, string clinicName);\n    event DoctorAdded(address indexed doctorId);\n    event PatientAdded(address indexed patientId);\n\n    // All the modifiers used have been defined below\n    modifier senderIsClinic {\n        require(clinics[msg.sender].id == msg.sender, \"Clinic does not exist\");\n        _;\n    }\n\n    // All the method definition below\n    function addClinic(string memory _clinicName, address _address, string memory _location, string memory _password) public {\n        require(clinics[_address].id != _address, \"This clinic already exists.\");\n        ClinicDetails memory clinic = ClinicDetails(_address, _clinicName,_location, _password);\n        clinics[_address] = clinic; \n        clinicAddress.push(_address);\n\n        emit ClinicAdded(_address, _clinicName);\n    }\n\n    function checkClinic(address clinicid, string memory _password) public view returns (bool) {\n        if(clinics[clinicid].id == clinicid && \n                (keccak256(abi.encodePacked(clinics[clinicid].password)) == keccak256(abi.encodePacked(_password)))) {\n                return true;\n        } \n        return false;\n    }\n\n    function clinicAddDoctor(address _doctorId, string memory _doctorName, string memory _clinicName, address _clinicAddress, string memory _dept, string memory _password) \n           senderIsClinic public {\n        Doctor doctorContract = Doctor(doctorContractAddress);\n        doctorContract.addDoctor(_doctorId, _doctorName, _clinicName, _clinicAddress, _dept, _password);\n        emit DoctorAdded(_doctorId);\n    }\n\n    // Clinics too can add patients\n    function clinicAddPatient(address _patientId, string memory _name, address _clinicID, string memory _department, string memory _password) public senderIsClinic{\n        Patient patientContract = Patient(patientContractAddress);\n    \n        patientContract.addPatient(_patientId, _name, _clinicID, _department, _password);\n    \n        emit PatientAdded(_patientId);\n    }\n\n    // The function can be called by client rto observe all the available clinics throughout the system\n    function getRegisteredClinics() public view returns(ClinicDetails [] memory) {\n        ClinicDetails[] memory clinicArray = new ClinicDetails[](clinicAddress.length);\n        \n        for(uint i = 0; i < clinicAddress.length; i++) {\n            clinicArray[i] = clinics[clinicAddress[i]];\n        }\n        \n        return clinicArray;\n    }\n\n    // The function can be used by patients to view all the clinics available in a particular location\n    function getRegisteredClinicsByLocation(string memory location) public view returns (ClinicDetails[] memory) {\n        ClinicDetails[] memory clinicArray = new ClinicDetails[](clinicAddress.length);\n        uint count = 0;\n\n        for (uint i = 0; i < clinicAddress.length; i++) {\n            if (keccak256(abi.encodePacked(clinics[clinicAddress[i]].location)) == keccak256(abi.encodePacked(location))) {\n                clinicArray[count] = clinics[clinicAddress[i]];\n                count++;\n            }\n        }\n\n        // Resize the array length to count\n        if (count < clinicArray.length) {\n            assembly {\n                mstore(clinicArray, count)\n            }\n        }\n\n        return clinicArray;\n    }\n\n    function doctorNaturalJoinPatient(address account) public view returns(doctorNaturalJoinPatientResult [] memory) {\n        Doctor doctorContract = Doctor(doctorContractAddress);\n        Patient patientContract = Patient(patientContractAddress);\n\n        // Fetching all the registered doctors in the system\n        Doctor.DoctorDetails[] memory doctors = doctorContract.getRegisteredDoctors(account);\n        Clinic.DoctorDetails[] memory registeredDoctors = new Clinic.DoctorDetails[](doctors.length);\n\n        for (uint256 i = 0; i < doctors.length; i++) {\n            registeredDoctors[i] = Clinic.DoctorDetails(doctors[i].id, doctors[i].name, doctors[i].clinicName, doctors[i].department, doctors[i].password);\n        }\n\n        // Fetching all the registered patients in the system\n        Patient.PatientDetails[] memory patients = patientContract.getRegisteredPatients(account);\n        Clinic.PatientDetails[] memory registeredPatients = new Clinic.PatientDetails[](patients.length);\n\n        for (uint256 i = 0; i < patients.length; i++) {\n            registeredPatients[i] = Clinic.PatientDetails(patients[i].id, patients[i].name, patients[i].department, patients[i].password);\n        }\n\n        // doctorNaturalJoinPatientResult[] memory result = naturalJoin(registeredDoctors, registeredPatients);     \n        // return result;\n\n        uint leftLen = registeredDoctors.length;\n        uint rightLen = registeredPatients.length;\n        uint resultLen = 0;\n        doctorNaturalJoinPatientResult[] memory result = new doctorNaturalJoinPatientResult[](leftLen + rightLen);\n        \n        for (uint i = 0; i < leftLen; i++) {\n            for (uint j = 0; j < rightLen; j++) {\n                if (keccak256(abi.encodePacked(registeredDoctors[i].department)) == keccak256(abi.encodePacked(registeredPatients[j].department))) {\n                    result[resultLen].doctorID = registeredDoctors[i].id;\n                    result[resultLen].doctorName = registeredDoctors[i].name;\n                    result[resultLen].clinicName = registeredDoctors[i].clinicName;\n                    result[resultLen].patientID = registeredPatients[j].id;\n                    result[resultLen].patientName = registeredPatients[j].name;\n                    result[resultLen].department = registeredPatients[j].department;\n                    resultLen++;\n                }\n            }\n        }\n\n        assembly {\n            mstore(result, resultLen)\n        }\n        return result;\n    }\n\n    // function naturalJoin(DoctorDetails[] memory left, PatientDetails[] memory right) public pure returns (doctorNaturalJoinPatientResult[] memory) {\n    //     uint leftLen = left.length;\n    //     uint rightLen = right.length;\n    //     uint resultLen = 0;\n    //     doctorNaturalJoinPatientResult[] memory result = new doctorNaturalJoinPatientResult[](leftLen + rightLen);\n        \n    //     for (uint i = 0; i < leftLen; i++) {\n    //         for (uint j = 0; j < rightLen; j++) {\n    //             if (keccak256(abi.encodePacked(left[i].department)) == keccak256(abi.encodePacked(right[j].department))) {\n    //                 result[resultLen].doctorID = left[i].id;\n    //                 result[resultLen].doctorName = left[i].name;\n    //                 result[resultLen].clinicName = left[i].clinicName;\n    //                 result[resultLen].patientID = right[j].id;\n    //                 result[resultLen].patientName = right[j].name;\n    //                 result[resultLen].department = right[j].department;\n    //                 resultLen++;\n    //             }\n    //         }\n    //     }\n\n    //     assembly {\n    //         mstore(result, resultLen)\n    //     }\n    //     return result;\n    // }\n} \n",
  "sourcePath": "/home/suvam/Documents/ProjectIntegrated/finaldApp/truffle/contracts/Clinic.sol",
  "compiler": {
    "name": "solc",
    "version": "0.8.17+commit.8df45f5f.Emscripten.clang"
  },
  "schemaVersion": "3.4.10",
  "updatedAt": "2023-05-04T05:10:33.346Z",
  "networkType": "ethereum",
  "devdoc": {
    "kind": "dev",
    "methods": {},
    "version": 1
  },
  "userdoc": {
    "kind": "user",
    "methods": {},
    "version": 1
  }
}