{
  "contractName": "Doctor",
  "abi": [
    {
      "inputs": [
        {
          "internalType": "address",
          "name": "PatientContractAddress",
          "type": "address"
        }
      ],
      "stateMutability": "nonpayable",
      "type": "constructor"
    },
    {
      "anonymous": false,
      "inputs": [
        {
          "indexed": true,
          "internalType": "address",
          "name": "patientId",
          "type": "address"
        }
      ],
      "name": "PatientAdded",
      "type": "event"
    },
    {
      "anonymous": false,
      "inputs": [
        {
          "indexed": false,
          "internalType": "string",
          "name": "_cid",
          "type": "string"
        },
        {
          "indexed": false,
          "internalType": "address",
          "name": "_patientId",
          "type": "address"
        },
        {
          "indexed": false,
          "internalType": "string",
          "name": "_patientName",
          "type": "string"
        },
        {
          "indexed": false,
          "internalType": "string",
          "name": "_doctorName",
          "type": "string"
        },
        {
          "indexed": false,
          "internalType": "address",
          "name": "_doctorId",
          "type": "address"
        },
        {
          "indexed": false,
          "internalType": "string",
          "name": "symptoms",
          "type": "string"
        },
        {
          "indexed": false,
          "internalType": "string",
          "name": "diagnostic",
          "type": "string"
        },
        {
          "indexed": false,
          "internalType": "string",
          "name": "department",
          "type": "string"
        },
        {
          "indexed": false,
          "internalType": "uint256",
          "name": "time",
          "type": "uint256"
        }
      ],
      "name": "RecordAdded",
      "type": "event"
    },
    {
      "inputs": [
        {
          "internalType": "address",
          "name": "",
          "type": "address"
        }
      ],
      "name": "doctors",
      "outputs": [
        {
          "internalType": "address",
          "name": "id",
          "type": "address"
        },
        {
          "internalType": "string",
          "name": "name",
          "type": "string"
        },
        {
          "internalType": "string",
          "name": "clinicName",
          "type": "string"
        },
        {
          "internalType": "address",
          "name": "clinicAddress",
          "type": "address"
        },
        {
          "internalType": "string",
          "name": "department",
          "type": "string"
        },
        {
          "internalType": "string",
          "name": "password",
          "type": "string"
        }
      ],
      "stateMutability": "view",
      "type": "function",
      "constant": true
    },
    {
      "inputs": [
        {
          "internalType": "address",
          "name": "_doctorId",
          "type": "address"
        },
        {
          "internalType": "string",
          "name": "_doctorName",
          "type": "string"
        },
        {
          "internalType": "string",
          "name": "_clinicName",
          "type": "string"
        },
        {
          "internalType": "address",
          "name": "_clinicAddress",
          "type": "address"
        },
        {
          "internalType": "string",
          "name": "_dept",
          "type": "string"
        },
        {
          "internalType": "string",
          "name": "_password",
          "type": "string"
        }
      ],
      "name": "addDoctor",
      "outputs": [],
      "stateMutability": "nonpayable",
      "type": "function"
    },
    {
      "inputs": [
        {
          "internalType": "address",
          "name": "_doctorId",
          "type": "address"
        },
        {
          "internalType": "string",
          "name": "_password",
          "type": "string"
        }
      ],
      "name": "checkDoctor",
      "outputs": [
        {
          "internalType": "bool",
          "name": "",
          "type": "bool"
        }
      ],
      "stateMutability": "view",
      "type": "function",
      "constant": true
    },
    {
      "inputs": [
        {
          "internalType": "address",
          "name": "_patientId",
          "type": "address"
        },
        {
          "internalType": "string",
          "name": "_name",
          "type": "string"
        },
        {
          "internalType": "address",
          "name": "_clinicID",
          "type": "address"
        },
        {
          "internalType": "string",
          "name": "_department",
          "type": "string"
        },
        {
          "internalType": "string",
          "name": "_password",
          "type": "string"
        }
      ],
      "name": "doctorAddPatient",
      "outputs": [],
      "stateMutability": "nonpayable",
      "type": "function"
    },
    {
      "inputs": [
        {
          "internalType": "string",
          "name": "_cid",
          "type": "string"
        },
        {
          "internalType": "address",
          "name": "_patientId",
          "type": "address"
        },
        {
          "internalType": "string",
          "name": "_patientName",
          "type": "string"
        },
        {
          "internalType": "string",
          "name": "_doctorName",
          "type": "string"
        },
        {
          "internalType": "address",
          "name": "_doctorId",
          "type": "address"
        },
        {
          "internalType": "string",
          "name": "symptoms",
          "type": "string"
        },
        {
          "internalType": "string",
          "name": "diagnostic",
          "type": "string"
        },
        {
          "internalType": "string",
          "name": "department",
          "type": "string"
        }
      ],
      "name": "doctorAddRecord",
      "outputs": [],
      "stateMutability": "nonpayable",
      "type": "function"
    },
    {
      "inputs": [
        {
          "internalType": "address",
          "name": "clinicID",
          "type": "address"
        }
      ],
      "name": "getRegisteredDoctors",
      "outputs": [
        {
          "components": [
            {
              "internalType": "address",
              "name": "id",
              "type": "address"
            },
            {
              "internalType": "string",
              "name": "name",
              "type": "string"
            },
            {
              "internalType": "string",
              "name": "clinicName",
              "type": "string"
            },
            {
              "internalType": "address",
              "name": "clinicAddress",
              "type": "address"
            },
            {
              "internalType": "string",
              "name": "department",
              "type": "string"
            },
            {
              "internalType": "string",
              "name": "password",
              "type": "string"
            }
          ],
          "internalType": "struct Doctor.DoctorDetails[]",
          "name": "",
          "type": "tuple[]"
        }
      ],
      "stateMutability": "view",
      "type": "function",
      "constant": true
    },
    {
      "inputs": [],
      "name": "getDoctorsCount",
      "outputs": [
        {
          "internalType": "uint256",
          "name": "",
          "type": "uint256"
        }
      ],
      "stateMutability": "view",
      "type": "function",
      "constant": true
    },
    {
      "inputs": [
        {
          "internalType": "address",
          "name": "clinicID",
          "type": "address"
        },
        {
          "internalType": "string",
          "name": "deptName",
          "type": "string"
        }
      ],
      "name": "getRegisteredDoctorsByDept",
      "outputs": [
        {
          "components": [
            {
              "internalType": "address",
              "name": "id",
              "type": "address"
            },
            {
              "internalType": "string",
              "name": "name",
              "type": "string"
            },
            {
              "internalType": "string",
              "name": "clinicName",
              "type": "string"
            },
            {
              "internalType": "address",
              "name": "clinicAddress",
              "type": "address"
            },
            {
              "internalType": "string",
              "name": "department",
              "type": "string"
            },
            {
              "internalType": "string",
              "name": "password",
              "type": "string"
            }
          ],
          "internalType": "struct Doctor.DoctorDetails[]",
          "name": "",
          "type": "tuple[]"
        }
      ],
      "stateMutability": "view",
      "type": "function",
      "constant": true
    },
    {
      "inputs": [
        {
          "internalType": "string",
          "name": "clinicName",
          "type": "string"
        }
      ],
      "name": "getRegisteredDoctorsByClinicName",
      "outputs": [
        {
          "components": [
            {
              "internalType": "address",
              "name": "id",
              "type": "address"
            },
            {
              "internalType": "string",
              "name": "name",
              "type": "string"
            },
            {
              "internalType": "string",
              "name": "clinicName",
              "type": "string"
            },
            {
              "internalType": "address",
              "name": "clinicAddress",
              "type": "address"
            },
            {
              "internalType": "string",
              "name": "department",
              "type": "string"
            },
            {
              "internalType": "string",
              "name": "password",
              "type": "string"
            }
          ],
          "internalType": "struct Doctor.DoctorDetails[]",
          "name": "",
          "type": "tuple[]"
        }
      ],
      "stateMutability": "view",
      "type": "function",
      "constant": true
    },
    {
      "inputs": [
        {
          "internalType": "string",
          "name": "clinicName",
          "type": "string"
        },
        {
          "internalType": "string",
          "name": "deptName",
          "type": "string"
        }
      ],
      "name": "getRegisteredDoctorsByClinicNameAndDepartment",
      "outputs": [
        {
          "components": [
            {
              "internalType": "address",
              "name": "id",
              "type": "address"
            },
            {
              "internalType": "string",
              "name": "name",
              "type": "string"
            },
            {
              "internalType": "string",
              "name": "clinicName",
              "type": "string"
            },
            {
              "internalType": "address",
              "name": "clinicAddress",
              "type": "address"
            },
            {
              "internalType": "string",
              "name": "department",
              "type": "string"
            },
            {
              "internalType": "string",
              "name": "password",
              "type": "string"
            }
          ],
          "internalType": "struct Doctor.DoctorDetails[]",
          "name": "",
          "type": "tuple[]"
        }
      ],
      "stateMutability": "view",
      "type": "function",
      "constant": true
    }
  ],
  "bytecode": "0x60806040523480156200001157600080fd5b5060405162003348380380620033488339818101604052810190620000379190620000e8565b806000806101000a81548173ffffffffffffffffffffffffffffffffffffffff021916908373ffffffffffffffffffffffffffffffffffffffff160217905550506200011a565b600080fd5b600073ffffffffffffffffffffffffffffffffffffffff82169050919050565b6000620000b08262000083565b9050919050565b620000c281620000a3565b8114620000ce57600080fd5b50565b600081519050620000e281620000b7565b92915050565b6000602082840312156200010157620001006200007e565b5b60006200011184828501620000d1565b91505092915050565b61321e806200012a6000396000f3fe608060405234801561001057600080fd5b506004361061009e5760003560e01c8063c30fc98c11610066578063c30fc98c14610186578063ce948a1b146101a2578063dba83f70146101be578063e707fcc7146101ee578063e88e3fc71461021e5761009e565b80631257c62d146100a357806331357af2146100d35780634852ad5c146100f15780636dcf4e3314610121578063a9583c2214610151575b600080fd5b6100bd60048036038101906100b891906123bc565b61023a565b6040516100ca9190612606565b60405180910390f35b6100db610829565b6040516100e89190612641565b60405180910390f35b61010b6004803603810190610106919061265c565b610836565b6040516101189190612606565b60405180910390f35b61013b600480360381019061013691906123bc565b610d4d565b60405161014891906126a4565b60405180910390f35b61016b6004803603810190610166919061265c565b610e91565b60405161017d96959493929190612718565b60405180910390f35b6101a0600480360381019061019b9190612795565b61112d565b005b6101bc60048036038101906101b791906128f3565b6112f8565b005b6101d860048036038101906101d391906129f0565b6115ba565b6040516101e59190612606565b60405180910390f35b61020860048036038101906102039190612a68565b611ba8565b6040516102159190612606565b60405180910390f35b61023860048036038101906102339190612ab1565b6120be565b005b6060600060028054905067ffffffffffffffff81111561025d5761025c612291565b5b60405190808252806020026020018201604052801561029657816020015b6102836121a2565b81526020019060019003908161027b5790505b5090506000805b600280549050811015610810578573ffffffffffffffffffffffffffffffffffffffff1660016000600284815481106102d9576102d8612b80565b5b9060005260206000200160009054906101000a900473ffffffffffffffffffffffffffffffffffffffff1673ffffffffffffffffffffffffffffffffffffffff1673ffffffffffffffffffffffffffffffffffffffff16815260200190815260200160002060030160009054906101000a900473ffffffffffffffffffffffffffffffffffffffff1673ffffffffffffffffffffffffffffffffffffffff1614801561044f5750846040516020016103919190612beb565b6040516020818303038152906040528051906020012060016000600284815481106103bf576103be612b80565b5b9060005260206000200160009054906101000a900473ffffffffffffffffffffffffffffffffffffffff1673ffffffffffffffffffffffffffffffffffffffff1673ffffffffffffffffffffffffffffffffffffffff1681526020019081526020016000206004016040516020016104379190612cfa565b60405160208183030381529060405280519060200120145b156107fd57600160006002838154811061046c5761046b612b80565b5b9060005260206000200160009054906101000a900473ffffffffffffffffffffffffffffffffffffffff1673ffffffffffffffffffffffffffffffffffffffff1673ffffffffffffffffffffffffffffffffffffffff1681526020019081526020016000206040518060c00160405290816000820160009054906101000a900473ffffffffffffffffffffffffffffffffffffffff1673ffffffffffffffffffffffffffffffffffffffff1673ffffffffffffffffffffffffffffffffffffffff16815260200160018201805461054290612c31565b80601f016020809104026020016040519081016040528092919081815260200182805461056e90612c31565b80156105bb5780601f10610590576101008083540402835291602001916105bb565b820191906000526020600020905b81548152906001019060200180831161059e57829003601f168201915b505050505081526020016002820180546105d490612c31565b80601f016020809104026020016040519081016040528092919081815260200182805461060090612c31565b801561064d5780601f106106225761010080835404028352916020019161064d565b820191906000526020600020905b81548152906001019060200180831161063057829003601f168201915b505050505081526020016003820160009054906101000a900473ffffffffffffffffffffffffffffffffffffffff1673ffffffffffffffffffffffffffffffffffffffff1673ffffffffffffffffffffffffffffffffffffffff1681526020016004820180546106bc90612c31565b80601f01602080910402602001604051908101604052809291908181526020018280546106e890612c31565b80156107355780601f1061070a57610100808354040283529160200191610735565b820191906000526020600020905b81548152906001019060200180831161071857829003601f168201915b5050505050815260200160058201805461074e90612c31565b80601f016020809104026020016040519081016040528092919081815260200182805461077a90612c31565b80156107c75780601f1061079c576101008083540402835291602001916107c7565b820191906000526020600020905b8154815290600101906020018083116107aa57829003601f168201915b5050505050815250508383815181106107e3576107e2612b80565b5b602002602001018190525081806107f990612d40565b9250505b808061080890612d40565b91505061029d565b50815181101561081e578082525b819250505092915050565b6000600280549050905090565b6060600060028054905067ffffffffffffffff81111561085957610858612291565b5b60405190808252806020026020018201604052801561089257816020015b61087f6121a2565b8152602001906001900390816108775790505b5090506000805b600280549050811015610d35578473ffffffffffffffffffffffffffffffffffffffff1660016000600284815481106108d5576108d4612b80565b5b9060005260206000200160009054906101000a900473ffffffffffffffffffffffffffffffffffffffff1673ffffffffffffffffffffffffffffffffffffffff1673ffffffffffffffffffffffffffffffffffffffff16815260200190815260200160002060030160009054906101000a900473ffffffffffffffffffffffffffffffffffffffff1673ffffffffffffffffffffffffffffffffffffffff1603610d2257600160006002838154811061099157610990612b80565b5b9060005260206000200160009054906101000a900473ffffffffffffffffffffffffffffffffffffffff1673ffffffffffffffffffffffffffffffffffffffff1673ffffffffffffffffffffffffffffffffffffffff1681526020019081526020016000206040518060c00160405290816000820160009054906101000a900473ffffffffffffffffffffffffffffffffffffffff1673ffffffffffffffffffffffffffffffffffffffff1673ffffffffffffffffffffffffffffffffffffffff168152602001600182018054610a6790612c31565b80601f0160208091040260200160405190810160405280929190818152602001828054610a9390612c31565b8015610ae05780601f10610ab557610100808354040283529160200191610ae0565b820191906000526020600020905b815481529060010190602001808311610ac357829003601f168201915b50505050508152602001600282018054610af990612c31565b80601f0160208091040260200160405190810160405280929190818152602001828054610b2590612c31565b8015610b725780601f10610b4757610100808354040283529160200191610b72565b820191906000526020600020905b815481529060010190602001808311610b5557829003601f168201915b505050505081526020016003820160009054906101000a900473ffffffffffffffffffffffffffffffffffffffff1673ffffffffffffffffffffffffffffffffffffffff1673ffffffffffffffffffffffffffffffffffffffff168152602001600482018054610be190612c31565b80601f0160208091040260200160405190810160405280929190818152602001828054610c0d90612c31565b8015610c5a5780601f10610c2f57610100808354040283529160200191610c5a565b820191906000526020600020905b815481529060010190602001808311610c3d57829003601f168201915b50505050508152602001600582018054610c7390612c31565b80601f0160208091040260200160405190810160405280929190818152602001828054610c9f90612c31565b8015610cec5780601f10610cc157610100808354040283529160200191610cec565b820191906000526020600020905b815481529060010190602001808311610ccf57829003601f168201915b505050505081525050838381518110610d0857610d07612b80565b5b60200260200101819052508180610d1e90612d40565b9250505b8080610d2d90612d40565b915050610899565b508151811015610d43578082525b8192505050919050565b60008273ffffffffffffffffffffffffffffffffffffffff16600160008573ffffffffffffffffffffffffffffffffffffffff1673ffffffffffffffffffffffffffffffffffffffff16815260200190815260200160002060000160009054906101000a900473ffffffffffffffffffffffffffffffffffffffff1673ffffffffffffffffffffffffffffffffffffffff16148015610e78575081604051602001610df89190612beb565b60405160208183030381529060405280519060200120600160008573ffffffffffffffffffffffffffffffffffffffff1673ffffffffffffffffffffffffffffffffffffffff168152602001908152602001600020600501604051602001610e609190612cfa565b60405160208183030381529060405280519060200120145b15610e865760019050610e8b565b600090505b92915050565b60016020528060005260406000206000915090508060000160009054906101000a900473ffffffffffffffffffffffffffffffffffffffff1690806001018054610eda90612c31565b80601f0160208091040260200160405190810160405280929190818152602001828054610f0690612c31565b8015610f535780601f10610f2857610100808354040283529160200191610f53565b820191906000526020600020905b815481529060010190602001808311610f3657829003601f168201915b505050505090806002018054610f6890612c31565b80601f0160208091040260200160405190810160405280929190818152602001828054610f9490612c31565b8015610fe15780601f10610fb657610100808354040283529160200191610fe1565b820191906000526020600020905b815481529060010190602001808311610fc457829003601f168201915b5050505050908060030160009054906101000a900473ffffffffffffffffffffffffffffffffffffffff169080600401805461101c90612c31565b80601f016020809104026020016040519081016040528092919081815260200182805461104890612c31565b80156110955780601f1061106a57610100808354040283529160200191611095565b820191906000526020600020905b81548152906001019060200180831161107857829003601f168201915b5050505050908060050180546110aa90612c31565b80601f01602080910402602001604051908101604052809291908181526020018280546110d690612c31565b80156111235780601f106110f857610100808354040283529160200191611123565b820191906000526020600020905b81548152906001019060200180831161110657829003601f168201915b5050505050905086565b838073ffffffffffffffffffffffffffffffffffffffff16600160008373ffffffffffffffffffffffffffffffffffffffff1673ffffffffffffffffffffffffffffffffffffffff16815260200190815260200160002060000160009054906101000a900473ffffffffffffffffffffffffffffffffffffffff1673ffffffffffffffffffffffffffffffffffffffff16146111fe576040517f08c379a00000000000000000000000000000000000000000000000000000000081526004016111f590612dd4565b60405180910390fd5b600042905060008060009054906101000a900473ffffffffffffffffffffffffffffffffffffffff1690508073ffffffffffffffffffffffffffffffffffffffff1663b9a5bd8c8c8c8c8c8c8c8c8c8b6040518a63ffffffff1660e01b815260040161127299989796959493929190612df4565b600060405180830381600087803b15801561128c57600080fd5b505af11580156112a0573d6000803e3d6000fd5b505050507fbeda0ccfae1034604cffef9c6e173d1278dcc2783d4e72cedb30026237b5ce898b8b8b8b8b8b8b8b8a6040516112e399989796959493929190612df4565b60405180910390a15050505050505050505050565b8573ffffffffffffffffffffffffffffffffffffffff16600160008873ffffffffffffffffffffffffffffffffffffffff1673ffffffffffffffffffffffffffffffffffffffff16815260200190815260200160002060000160009054906101000a900473ffffffffffffffffffffffffffffffffffffffff1673ffffffffffffffffffffffffffffffffffffffff16036113c8576040517f08c379a00000000000000000000000000000000000000000000000000000000081526004016113bf90612ef7565b60405180910390fd5b60006040518060c001604052808873ffffffffffffffffffffffffffffffffffffffff1681526020018781526020018681526020018573ffffffffffffffffffffffffffffffffffffffff16815260200184815260200183815250905080600160008973ffffffffffffffffffffffffffffffffffffffff1673ffffffffffffffffffffffffffffffffffffffff16815260200190815260200160002060008201518160000160006101000a81548173ffffffffffffffffffffffffffffffffffffffff021916908373ffffffffffffffffffffffffffffffffffffffff16021790555060208201518160010190816114c191906130ae565b5060408201518160020190816114d791906130ae565b5060608201518160030160006101000a81548173ffffffffffffffffffffffffffffffffffffffff021916908373ffffffffffffffffffffffffffffffffffffffff160217905550608082015181600401908161153491906130ae565b5060a082015181600501908161154a91906130ae565b509050506002879080600181540180825580915050600190039060005260206000200160009091909190916101000a81548173ffffffffffffffffffffffffffffffffffffffff021916908373ffffffffffffffffffffffffffffffffffffffff16021790555050505050505050565b6060600060028054905067ffffffffffffffff8111156115dd576115dc612291565b5b60405190808252806020026020018201604052801561161657816020015b6116036121a2565b8152602001906001900390816115fb5790505b5090506000805b600280549050811015611b8f578460405160200161163b9190612beb565b60405160208183030381529060405280519060200120600160006002848154811061166957611668612b80565b5b9060005260206000200160009054906101000a900473ffffffffffffffffffffffffffffffffffffffff1673ffffffffffffffffffffffffffffffffffffffff1673ffffffffffffffffffffffffffffffffffffffff1681526020019081526020016000206004016040516020016116e19190612cfa565b604051602081830303815290604052805190602001201480156117ce5750856040516020016117109190612beb565b60405160208183030381529060405280519060200120600160006002848154811061173e5761173d612b80565b5b9060005260206000200160009054906101000a900473ffffffffffffffffffffffffffffffffffffffff1673ffffffffffffffffffffffffffffffffffffffff1673ffffffffffffffffffffffffffffffffffffffff1681526020019081526020016000206002016040516020016117b69190612cfa565b60405160208183030381529060405280519060200120145b15611b7c5760016000600283815481106117eb576117ea612b80565b5b9060005260206000200160009054906101000a900473ffffffffffffffffffffffffffffffffffffffff1673ffffffffffffffffffffffffffffffffffffffff1673ffffffffffffffffffffffffffffffffffffffff1681526020019081526020016000206040518060c00160405290816000820160009054906101000a900473ffffffffffffffffffffffffffffffffffffffff1673ffffffffffffffffffffffffffffffffffffffff1673ffffffffffffffffffffffffffffffffffffffff1681526020016001820180546118c190612c31565b80601f01602080910402602001604051908101604052809291908181526020018280546118ed90612c31565b801561193a5780601f1061190f5761010080835404028352916020019161193a565b820191906000526020600020905b81548152906001019060200180831161191d57829003601f168201915b5050505050815260200160028201805461195390612c31565b80601f016020809104026020016040519081016040528092919081815260200182805461197f90612c31565b80156119cc5780601f106119a1576101008083540402835291602001916119cc565b820191906000526020600020905b8154815290600101906020018083116119af57829003601f168201915b505050505081526020016003820160009054906101000a900473ffffffffffffffffffffffffffffffffffffffff1673ffffffffffffffffffffffffffffffffffffffff1673ffffffffffffffffffffffffffffffffffffffff168152602001600482018054611a3b90612c31565b80601f0160208091040260200160405190810160405280929190818152602001828054611a6790612c31565b8015611ab45780601f10611a8957610100808354040283529160200191611ab4565b820191906000526020600020905b815481529060010190602001808311611a9757829003601f168201915b50505050508152602001600582018054611acd90612c31565b80601f0160208091040260200160405190810160405280929190818152602001828054611af990612c31565b8015611b465780601f10611b1b57610100808354040283529160200191611b46565b820191906000526020600020905b815481529060010190602001808311611b2957829003601f168201915b505050505081525050838381518110611b6257611b61612b80565b5b60200260200101819052508180611b7890612d40565b9250505b8080611b8790612d40565b91505061161d565b508151811015611b9d578082525b819250505092915050565b6060600060028054905067ffffffffffffffff811115611bcb57611bca612291565b5b604051908082528060200260200182016040528015611c0457816020015b611bf16121a2565b815260200190600190039081611be95790505b5090506000805b6002805490508110156120a65784604051602001611c299190612beb565b604051602081830303815290604052805190602001206001600060028481548110611c5757611c56612b80565b5b9060005260206000200160009054906101000a900473ffffffffffffffffffffffffffffffffffffffff1673ffffffffffffffffffffffffffffffffffffffff1673ffffffffffffffffffffffffffffffffffffffff168152602001908152602001600020600201604051602001611ccf9190612cfa565b6040516020818303038152906040528051906020012003612093576001600060028381548110611d0257611d01612b80565b5b9060005260206000200160009054906101000a900473ffffffffffffffffffffffffffffffffffffffff1673ffffffffffffffffffffffffffffffffffffffff1673ffffffffffffffffffffffffffffffffffffffff1681526020019081526020016000206040518060c00160405290816000820160009054906101000a900473ffffffffffffffffffffffffffffffffffffffff1673ffffffffffffffffffffffffffffffffffffffff1673ffffffffffffffffffffffffffffffffffffffff168152602001600182018054611dd890612c31565b80601f0160208091040260200160405190810160405280929190818152602001828054611e0490612c31565b8015611e515780601f10611e2657610100808354040283529160200191611e51565b820191906000526020600020905b815481529060010190602001808311611e3457829003601f168201915b50505050508152602001600282018054611e6a90612c31565b80601f0160208091040260200160405190810160405280929190818152602001828054611e9690612c31565b8015611ee35780601f10611eb857610100808354040283529160200191611ee3565b820191906000526020600020905b815481529060010190602001808311611ec657829003601f168201915b505050505081526020016003820160009054906101000a900473ffffffffffffffffffffffffffffffffffffffff1673ffffffffffffffffffffffffffffffffffffffff1673ffffffffffffffffffffffffffffffffffffffff168152602001600482018054611f5290612c31565b80601f0160208091040260200160405190810160405280929190818152602001828054611f7e90612c31565b8015611fcb5780601f10611fa057610100808354040283529160200191611fcb565b820191906000526020600020905b815481529060010190602001808311611fae57829003601f168201915b50505050508152602001600582018054611fe490612c31565b80601f016020809104026020016040519081016040528092919081815260200182805461201090612c31565b801561205d5780601f106120325761010080835404028352916020019161205d565b820191906000526020600020905b81548152906001019060200180831161204057829003601f168201915b50505050508152505083838151811061207957612078612b80565b5b6020026020010181905250818061208f90612d40565b9250505b808061209e90612d40565b915050611c0b565b5081518110156120b4578082525b8192505050919050565b60008060009054906101000a900473ffffffffffffffffffffffffffffffffffffffff1690508073ffffffffffffffffffffffffffffffffffffffff1663e6dc0d8d87878787876040518663ffffffff1660e01b8152600401612125959493929190613180565b600060405180830381600087803b15801561213f57600080fd5b505af1158015612153573d6000803e3d6000fd5b505050508573ffffffffffffffffffffffffffffffffffffffff167fa58cff07db0adda3ab7a40bd2f18ab57210bf38391a52ffd2e8eee6b8bdec71a60405160405180910390a2505050505050565b6040518060c00160405280600073ffffffffffffffffffffffffffffffffffffffff1681526020016060815260200160608152602001600073ffffffffffffffffffffffffffffffffffffffff16815260200160608152602001606081525090565b6000604051905090565b600080fd5b600080fd5b600073ffffffffffffffffffffffffffffffffffffffff82169050919050565b600061224382612218565b9050919050565b61225381612238565b811461225e57600080fd5b50565b6000813590506122708161224a565b92915050565b600080fd5b600080fd5b6000601f19601f8301169050919050565b7f4e487b7100000000000000000000000000000000000000000000000000000000600052604160045260246000fd5b6122c982612280565b810181811067ffffffffffffffff821117156122e8576122e7612291565b5b80604052505050565b60006122fb612204565b905061230782826122c0565b919050565b600067ffffffffffffffff82111561232757612326612291565b5b61233082612280565b9050602081019050919050565b82818337600083830152505050565b600061235f61235a8461230c565b6122f1565b90508281526020810184848401111561237b5761237a61227b565b5b61238684828561233d565b509392505050565b600082601f8301126123a3576123a2612276565b5b81356123b384826020860161234c565b91505092915050565b600080604083850312156123d3576123d261220e565b5b60006123e185828601612261565b925050602083013567ffffffffffffffff81111561240257612401612213565b5b61240e8582860161238e565b9150509250929050565b600081519050919050565b600082825260208201905092915050565b6000819050602082019050919050565b61244d81612238565b82525050565b600081519050919050565b600082825260208201905092915050565b60005b8381101561248d578082015181840152602081019050612472565b60008484015250505050565b60006124a482612453565b6124ae818561245e565b93506124be81856020860161246f565b6124c781612280565b840191505092915050565b600060c0830160008301516124ea6000860182612444565b50602083015184820360208601526125028282612499565b9150506040830151848203604086015261251c8282612499565b91505060608301516125316060860182612444565b50608083015184820360808601526125498282612499565b91505060a083015184820360a08601526125638282612499565b9150508091505092915050565b600061257c83836124d2565b905092915050565b6000602082019050919050565b600061259c82612418565b6125a68185612423565b9350836020820285016125b885612434565b8060005b858110156125f457848403895281516125d58582612570565b94506125e083612584565b925060208a019950506001810190506125bc565b50829750879550505050505092915050565b600060208201905081810360008301526126208184612591565b905092915050565b6000819050919050565b61263b81612628565b82525050565b60006020820190506126566000830184612632565b92915050565b6000602082840312156126725761267161220e565b5b600061268084828501612261565b91505092915050565b60008115159050919050565b61269e81612689565b82525050565b60006020820190506126b96000830184612695565b92915050565b6126c881612238565b82525050565b600082825260208201905092915050565b60006126ea82612453565b6126f481856126ce565b935061270481856020860161246f565b61270d81612280565b840191505092915050565b600060c08201905061272d60008301896126bf565b818103602083015261273f81886126df565b9050818103604083015261275381876126df565b905061276260608301866126bf565b818103608083015261277481856126df565b905081810360a083015261278881846126df565b9050979650505050505050565b600080600080600080600080610100898b0312156127b6576127b561220e565b5b600089013567ffffffffffffffff8111156127d4576127d3612213565b5b6127e08b828c0161238e565b98505060206127f18b828c01612261565b975050604089013567ffffffffffffffff81111561281257612811612213565b5b61281e8b828c0161238e565b965050606089013567ffffffffffffffff81111561283f5761283e612213565b5b61284b8b828c0161238e565b955050608061285c8b828c01612261565b94505060a089013567ffffffffffffffff81111561287d5761287c612213565b5b6128898b828c0161238e565b93505060c089013567ffffffffffffffff8111156128aa576128a9612213565b5b6128b68b828c0161238e565b92505060e089013567ffffffffffffffff8111156128d7576128d6612213565b5b6128e38b828c0161238e565b9150509295985092959890939650565b60008060008060008060c087890312156129105761290f61220e565b5b600061291e89828a01612261565b965050602087013567ffffffffffffffff81111561293f5761293e612213565b5b61294b89828a0161238e565b955050604087013567ffffffffffffffff81111561296c5761296b612213565b5b61297889828a0161238e565b945050606061298989828a01612261565b935050608087013567ffffffffffffffff8111156129aa576129a9612213565b5b6129b689828a0161238e565b92505060a087013567ffffffffffffffff8111156129d7576129d6612213565b5b6129e389828a0161238e565b9150509295509295509295565b60008060408385031215612a0757612a0661220e565b5b600083013567ffffffffffffffff811115612a2557612a24612213565b5b612a318582860161238e565b925050602083013567ffffffffffffffff811115612a5257612a51612213565b5b612a5e8582860161238e565b9150509250929050565b600060208284031215612a7e57612a7d61220e565b5b600082013567ffffffffffffffff811115612a9c57612a9b612213565b5b612aa88482850161238e565b91505092915050565b600080600080600060a08688031215612acd57612acc61220e565b5b6000612adb88828901612261565b955050602086013567ffffffffffffffff811115612afc57612afb612213565b5b612b088882890161238e565b9450506040612b1988828901612261565b935050606086013567ffffffffffffffff811115612b3a57612b39612213565b5b612b468882890161238e565b925050608086013567ffffffffffffffff811115612b6757612b66612213565b5b612b738882890161238e565b9150509295509295909350565b7f4e487b7100000000000000000000000000000000000000000000000000000000600052603260045260246000fd5b600081905092915050565b6000612bc582612453565b612bcf8185612baf565b9350612bdf81856020860161246f565b80840191505092915050565b6000612bf78284612bba565b915081905092915050565b7f4e487b7100000000000000000000000000000000000000000000000000000000600052602260045260246000fd5b60006002820490506001821680612c4957607f821691505b602082108103612c5c57612c5b612c02565b5b50919050565b60008190508160005260206000209050919050565b60008154612c8481612c31565b612c8e8186612baf565b94506001821660008114612ca95760018114612cbe57612cf1565b60ff1983168652811515820286019350612cf1565b612cc785612c62565b60005b83811015612ce957815481890152600182019150602081019050612cca565b838801955050505b50505092915050565b6000612d068284612c77565b915081905092915050565b7f4e487b7100000000000000000000000000000000000000000000000000000000600052601160045260246000fd5b6000612d4b82612628565b91507fffffffffffffffffffffffffffffffffffffffffffffffffffffffffffffffff8203612d7d57612d7c612d11565b5b600182019050919050565b7f53656e646572206973206e6f74206120646f63746f7200000000000000000000600082015250565b6000612dbe6016836126ce565b9150612dc982612d88565b602082019050919050565b60006020820190508181036000830152612ded81612db1565b9050919050565b6000610120820190508181036000830152612e0f818c6126df565b9050612e1e602083018b6126bf565b8181036040830152612e30818a6126df565b90508181036060830152612e4481896126df565b9050612e5360808301886126bf565b81810360a0830152612e6581876126df565b905081810360c0830152612e7981866126df565b905081810360e0830152612e8d81856126df565b9050612e9d610100830184612632565b9a9950505050505050505050565b7f5468697320646f63746f7220616c7265616479206578697374732e0000000000600082015250565b6000612ee1601b836126ce565b9150612eec82612eab565b602082019050919050565b60006020820190508181036000830152612f1081612ed4565b9050919050565b60006020601f8301049050919050565b600082821b905092915050565b600060088302612f647fffffffffffffffffffffffffffffffffffffffffffffffffffffffffffffffff82612f27565b612f6e8683612f27565b95508019841693508086168417925050509392505050565b6000819050919050565b6000612fab612fa6612fa184612628565b612f86565b612628565b9050919050565b6000819050919050565b612fc583612f90565b612fd9612fd182612fb2565b848454612f34565b825550505050565b600090565b612fee612fe1565b612ff9818484612fbc565b505050565b5b8181101561301d57613012600082612fe6565b600181019050612fff565b5050565b601f8211156130625761303381612c62565b61303c84612f17565b8101602085101561304b578190505b61305f61305785612f17565b830182612ffe565b50505b505050565b600082821c905092915050565b600061308560001984600802613067565b1980831691505092915050565b600061309e8383613074565b9150826002028217905092915050565b6130b782612453565b67ffffffffffffffff8111156130d0576130cf612291565b5b6130da8254612c31565b6130e5828285613021565b600060209050601f8311600181146131185760008415613106578287015190505b6131108582613092565b865550613178565b601f19841661312686612c62565b60005b8281101561314e57848901518255600182019150602085019450602081019050613129565b8683101561316b5784890151613167601f891682613074565b8355505b6001600288020188555050505b505050505050565b600060a08201905061319560008301886126bf565b81810360208301526131a781876126df565b90506131b660408301866126bf565b81810360608301526131c881856126df565b905081810360808301526131dc81846126df565b9050969550505050505056fea2646970667358221220e936a4088334a4c093ba941b840ccc0aa9c80373f84c039941d519f5cfafa56164736f6c63430008110033",
  "immutableReferences": {},
  "source": "// SPDX-License-Identifier: MIT\npragma solidity >=0.4.22 <0.9.0;\npragma experimental ABIEncoderV2;\nimport \"./Patient.sol\";\n\ncontract Doctor { \n\n  address patientContractAddress;\n\n  constructor(address PatientContractAddress) {\n    patientContractAddress = PatientContractAddress;\n  }\n\n  struct DoctorDetails {\n    address id;\n    string name;\n    string clinicName;\n    address clinicAddress;\n    string department;\n    string password;\n  }\n\n  mapping (address => DoctorDetails) public doctors;\n  address[] doctorAddress;\n  \n  event PatientAdded(address indexed patientId);\n  event RecordAdded(string _cid, address _patientId, string _patientName, string _doctorName, address _doctorId,\n                    string symptoms, string diagnostic, string department, uint256 time); \n\n  modifier senderIsDoctor(address doctorID) {\n    require(doctors[doctorID].id == doctorID, \"Sender is not a doctor\");\n    _;\n  }\n\n  function addDoctor(address _doctorId, string memory _doctorName, string memory _clinicName, address _clinicAddress, string memory _dept, string memory _password) \n           public {\n    require(doctors[_doctorId].id != _doctorId, \"This doctor already exists.\");\n\n    DoctorDetails memory doctor = DoctorDetails(_doctorId, _doctorName, _clinicName, _clinicAddress, _dept, _password);\n    doctors[_doctorId] = doctor;\n    doctorAddress.push(_doctorId);\n  }\n  \n  function checkDoctor(address _doctorId, string memory _password) public view returns (bool) {\n    if (doctors[_doctorId].id == _doctorId && \n            keccak256(abi.encodePacked(doctors[_doctorId].password)) == keccak256(abi.encodePacked(_password))) {\n              return true;\n    }\n\n    return false;\n  }\n\n  function doctorAddPatient(address _patientId, string memory _name, address _clinicID, string memory _department, string memory _password) public {\n    Patient patientContract = Patient(patientContractAddress);\n    \n    patientContract.addPatient(_patientId, _name, _clinicID, _department, _password);\n    \n    emit PatientAdded(_patientId);\n  }\n  \n  function doctorAddRecord(string memory _cid, address _patientId, string memory _patientName, string memory _doctorName, \n                     address _doctorId, string memory symptoms, string memory diagnostic, string memory department) public\n                     senderIsDoctor(_doctorId){\n    uint256 time = block.timestamp;\n    Patient patientContract = Patient(patientContractAddress);\n    \n    patientContract.addRecord(_cid, _patientId, _patientName, _doctorName, _doctorId, symptoms, diagnostic, department, time);\n    \n    emit RecordAdded(_cid, _patientId, _patientName, _doctorName, _doctorId, symptoms, diagnostic, department, time);\n  } \n\n  // function doctorGetPatientRecords(address _patientId) public view {\n  //  Patient patientContract = Patient(patientContractAddress);\n    \n  //  patientContract.getRecords(_patientId);\n  // } \n  \n  function getRegisteredDoctors(address clinicID) public view returns(DoctorDetails [] memory) {\n    DoctorDetails[] memory doctorArray = new DoctorDetails[](doctorAddress.length);\n    uint count = 0;\n    \n    for(uint i = 0; i < doctorAddress.length; i++) {\n      if(doctors[doctorAddress[i]].clinicAddress == clinicID) {\n        doctorArray[count] = doctors[doctorAddress[i]];\n        count++;\n      }\n    }\n\n    if (count < doctorArray.length) {\n        assembly {\n            mstore(doctorArray, count)\n        }\n    }\n    \n    return doctorArray;\n  }\n\n  // function getAllDoctors() public view returns(DoctorDetails [] memory) {\n    // DoctorDetails[] memory doctorArray = new DoctorDetails[](doctorAddress.length);\n    \n    // for(uint i = 0; i < doctorAddress.length; i++) {\n    //   doctorArray[i] = doctors[doctorAddress[i]];\n    // }\n\n    // return doctorArray;\n  // }\n\n  function getDoctorsCount() public view returns(uint) {\n    return doctorAddress.length;\n  }\n\n  // function getRegisteredDoctorsByDept(string memory deptName) public view returns(DoctorDetails [] memory, uint) {\n  //   DoctorDetails[] memory doctorArray = new DoctorDetails[](doctorAddress.length);\n  //   uint length = 0;\n    \n  //   for(uint i = 0; i < doctorAddress.length; i++) {\n  //     if (keccak256(abi.encodePacked(doctors[doctorAddress[i]].department)) == keccak256(abi.encodePacked(deptName))) {\n  //       // doctorArray.push(doctorAddress[i]);\n  //       doctorArray[i] = (doctors[doctorAddress[i]]);\n  //       length = i;\n  //     }\n  //   }\n  //   return (doctorArray[:length + 1], length + 1);\n  // }\n  \n  function getRegisteredDoctorsByDept(address clinicID, string memory deptName) public view returns (DoctorDetails[] memory) {\n    DoctorDetails[] memory doctorArray = new DoctorDetails[](doctorAddress.length);\n    uint count = 0;\n\n    for (uint i = 0; i < doctorAddress.length; i++) {\n        if (doctors[doctorAddress[i]].clinicAddress == clinicID && (keccak256(abi.encodePacked(doctors[doctorAddress[i]].department)) == keccak256(abi.encodePacked(deptName)))) {\n            doctorArray[count] = doctors[doctorAddress[i]];\n            count++;\n        }\n    }\n\n    // Resize the array length to count\n    if (count < doctorArray.length) {\n        assembly {\n            mstore(doctorArray, count)\n        }\n    }\n\n    return doctorArray;\n  }\n\n  function getRegisteredDoctorsByClinicName(string memory clinicName) public view returns (DoctorDetails[] memory) {\n    DoctorDetails[] memory doctorArray = new DoctorDetails[](doctorAddress.length);\n    uint count = 0;\n\n    for (uint i = 0; i < doctorAddress.length; i++) {\n        if (keccak256(abi.encodePacked(doctors[doctorAddress[i]].clinicName)) == keccak256(abi.encodePacked(clinicName))) {\n            doctorArray[count] = doctors[doctorAddress[i]];\n            count++;\n        }\n    }\n\n    // Resize the array length to count\n    if (count < doctorArray.length) {\n        assembly {\n            mstore(doctorArray, count)\n        }\n    }\n\n    return doctorArray;\n  }\n\n  function getRegisteredDoctorsByClinicNameAndDepartment(string memory clinicName, string memory deptName) public view returns (DoctorDetails[] memory) {\n    DoctorDetails[] memory doctorArray = new DoctorDetails[](doctorAddress.length);\n    uint count = 0;\n\n    for (uint i = 0; i < doctorAddress.length; i++) {\n        if (keccak256(abi.encodePacked(doctors[doctorAddress[i]].department)) == keccak256(abi.encodePacked(deptName)) && \n            keccak256(abi.encodePacked(doctors[doctorAddress[i]].clinicName)) == keccak256(abi.encodePacked(clinicName))) {\n            doctorArray[count] = doctors[doctorAddress[i]];\n            count++;\n        }\n    }\n\n    // Resize the array length to count\n    if (count < doctorArray.length) {\n        assembly {\n            mstore(doctorArray, count)\n        }\n    }\n\n    return doctorArray;\n  }\n//   function doctorTreatedPatient(address _patientId) public view returns(Doctor [] memory) {\n//     if(patientContract.doPatientExists(_patientId)) {\n//         patientRecords = patientContract.getRecords(_patientId);\n//         Doctor[] memory doctorArray = new Doctor[](patientRecords[msg.sender].records.length);\n//         for(uint i = 0; i < patientRecords[msg.sender].records.length; i++) {\n//         doctorArray[i] = doctors[patientRecords[msg.sender].records[i].doctorId];\n//         }\n//         return doctorArray;\n//     } else {\n//         return \"The Patient doesn't exist!\";\n//     }\n//   }\n} \n",
  "sourcePath": "/home/suvam/Documents/ProjectIntegrated/finaldApp/truffle/contracts/Doctor.sol",
  "compiler": {
    "name": "solc",
    "version": "0.8.17+commit.8df45f5f.Emscripten.clang"
  },
  "schemaVersion": "3.4.10",
  "updatedAt": "2023-05-04T05:10:33.393Z",
  "networkType": "ethereum",
  "devdoc": {
    "kind": "dev",
    "methods": {},
    "version": 1
  },
  "userdoc": {
    "kind": "user",
    "methods": {},
    "version": 1
  }
}