{
  "contractName": "Patient",
  "abi": [
    {
      "inputs": [
        {
          "internalType": "address",
          "name": "",
          "type": "address"
        }
      ],
      "name": "patientRecords",
      "outputs": [
        {
          "internalType": "address",
          "name": "id",
          "type": "address"
        }
      ],
      "stateMutability": "view",
      "type": "function",
      "constant": true
    },
    {
      "inputs": [
        {
          "internalType": "address",
          "name": "",
          "type": "address"
        }
      ],
      "name": "patients",
      "outputs": [
        {
          "internalType": "address",
          "name": "id",
          "type": "address"
        },
        {
          "internalType": "string",
          "name": "name",
          "type": "string"
        },
        {
          "internalType": "address",
          "name": "clinicAddress",
          "type": "address"
        },
        {
          "internalType": "string",
          "name": "department",
          "type": "string"
        },
        {
          "internalType": "string",
          "name": "password",
          "type": "string"
        }
      ],
      "stateMutability": "view",
      "type": "function",
      "constant": true
    },
    {
      "inputs": [
        {
          "internalType": "address",
          "name": "_patientId",
          "type": "address"
        },
        {
          "internalType": "string",
          "name": "_name",
          "type": "string"
        },
        {
          "internalType": "address",
          "name": "clinicID",
          "type": "address"
        },
        {
          "internalType": "string",
          "name": "_department",
          "type": "string"
        },
        {
          "internalType": "string",
          "name": "_password",
          "type": "string"
        }
      ],
      "name": "addPatient",
      "outputs": [],
      "stateMutability": "nonpayable",
      "type": "function"
    },
    {
      "inputs": [
        {
          "internalType": "string",
          "name": "_cid",
          "type": "string"
        },
        {
          "internalType": "address",
          "name": "_patientId",
          "type": "address"
        },
        {
          "internalType": "string",
          "name": "_patientName",
          "type": "string"
        },
        {
          "internalType": "string",
          "name": "_doctorName",
          "type": "string"
        },
        {
          "internalType": "address",
          "name": "_doctorId",
          "type": "address"
        },
        {
          "internalType": "string",
          "name": "symptoms",
          "type": "string"
        },
        {
          "internalType": "string",
          "name": "diagnostic",
          "type": "string"
        },
        {
          "internalType": "string",
          "name": "department",
          "type": "string"
        },
        {
          "internalType": "uint256",
          "name": "time",
          "type": "uint256"
        }
      ],
      "name": "addRecord",
      "outputs": [],
      "stateMutability": "nonpayable",
      "type": "function"
    },
    {
      "inputs": [
        {
          "internalType": "address",
          "name": "_patientId",
          "type": "address"
        },
        {
          "internalType": "string",
          "name": "_password",
          "type": "string"
        }
      ],
      "name": "checkPatient",
      "outputs": [
        {
          "internalType": "bool",
          "name": "",
          "type": "bool"
        }
      ],
      "stateMutability": "view",
      "type": "function",
      "constant": true
    },
    {
      "inputs": [
        {
          "internalType": "address",
          "name": "clinicID",
          "type": "address"
        }
      ],
      "name": "getRegisteredPatients",
      "outputs": [
        {
          "components": [
            {
              "internalType": "address",
              "name": "id",
              "type": "address"
            },
            {
              "internalType": "string",
              "name": "name",
              "type": "string"
            },
            {
              "internalType": "address",
              "name": "clinicAddress",
              "type": "address"
            },
            {
              "internalType": "string",
              "name": "department",
              "type": "string"
            },
            {
              "internalType": "string",
              "name": "password",
              "type": "string"
            }
          ],
          "internalType": "struct Patient.PatientDetails[]",
          "name": "",
          "type": "tuple[]"
        }
      ],
      "stateMutability": "view",
      "type": "function",
      "constant": true
    },
    {
      "inputs": [],
      "name": "getAllPatients",
      "outputs": [
        {
          "components": [
            {
              "internalType": "address",
              "name": "id",
              "type": "address"
            },
            {
              "internalType": "string",
              "name": "name",
              "type": "string"
            },
            {
              "internalType": "address",
              "name": "clinicAddress",
              "type": "address"
            },
            {
              "internalType": "string",
              "name": "department",
              "type": "string"
            },
            {
              "internalType": "string",
              "name": "password",
              "type": "string"
            }
          ],
          "internalType": "struct Patient.PatientDetails[]",
          "name": "",
          "type": "tuple[]"
        }
      ],
      "stateMutability": "view",
      "type": "function",
      "constant": true
    },
    {
      "inputs": [],
      "name": "getPatientsCount",
      "outputs": [
        {
          "internalType": "uint256",
          "name": "",
          "type": "uint256"
        }
      ],
      "stateMutability": "view",
      "type": "function",
      "constant": true
    },
    {
      "inputs": [
        {
          "internalType": "address",
          "name": "patientID",
          "type": "address"
        }
      ],
      "name": "getRegisteredPatientsRecordsByID",
      "outputs": [
        {
          "components": [
            {
              "internalType": "string",
              "name": "cid",
              "type": "string"
            },
            {
              "internalType": "address",
              "name": "patientId",
              "type": "address"
            },
            {
              "internalType": "address",
              "name": "doctorId",
              "type": "address"
            },
            {
              "internalType": "string",
              "name": "patientName",
              "type": "string"
            },
            {
              "internalType": "string",
              "name": "doctorName",
              "type": "string"
            },
            {
              "internalType": "string",
              "name": "symptoms",
              "type": "string"
            },
            {
              "internalType": "string",
              "name": "diagnostic",
              "type": "string"
            },
            {
              "internalType": "string",
              "name": "department",
              "type": "string"
            },
            {
              "internalType": "uint256",
              "name": "timeAdded",
              "type": "uint256"
            }
          ],
          "internalType": "struct Patient.Record[]",
          "name": "",
          "type": "tuple[]"
        }
      ],
      "stateMutability": "view",
      "type": "function",
      "constant": true
    },
    {
      "inputs": [
        {
          "internalType": "address",
          "name": "_clinicAddress",
          "type": "address"
        },
        {
          "internalType": "string",
          "name": "deptName",
          "type": "string"
        }
      ],
      "name": "getRegisteredPatientsByDept",
      "outputs": [
        {
          "components": [
            {
              "internalType": "address",
              "name": "id",
              "type": "address"
            },
            {
              "internalType": "string",
              "name": "name",
              "type": "string"
            },
            {
              "internalType": "address",
              "name": "clinicAddress",
              "type": "address"
            },
            {
              "internalType": "string",
              "name": "department",
              "type": "string"
            },
            {
              "internalType": "string",
              "name": "password",
              "type": "string"
            }
          ],
          "internalType": "struct Patient.PatientDetails[]",
          "name": "",
          "type": "tuple[]"
        }
      ],
      "stateMutability": "view",
      "type": "function",
      "constant": true
    },
    {
      "inputs": [
        {
          "internalType": "address",
          "name": "patientID",
          "type": "address"
        }
      ],
      "name": "groupByClause",
      "outputs": [
        {
          "components": [
            {
              "internalType": "uint256",
              "name": "count",
              "type": "uint256"
            },
            {
              "internalType": "string",
              "name": "doctorName",
              "type": "string"
            }
          ],
          "internalType": "struct Patient.groupBy[]",
          "name": "",
          "type": "tuple[]"
        }
      ],
      "stateMutability": "view",
      "type": "function",
      "constant": true
    },
    {
      "inputs": [
        {
          "internalType": "address",
          "name": "patientID",
          "type": "address"
        },
        {
          "internalType": "uint256",
          "name": "time",
          "type": "uint256"
        }
      ],
      "name": "getPatientRecordsFromSpecificDate",
      "outputs": [
        {
          "components": [
            {
              "internalType": "string",
              "name": "cid",
              "type": "string"
            },
            {
              "internalType": "address",
              "name": "patientId",
              "type": "address"
            },
            {
              "internalType": "address",
              "name": "doctorId",
              "type": "address"
            },
            {
              "internalType": "string",
              "name": "patientName",
              "type": "string"
            },
            {
              "internalType": "string",
              "name": "doctorName",
              "type": "string"
            },
            {
              "internalType": "string",
              "name": "symptoms",
              "type": "string"
            },
            {
              "internalType": "string",
              "name": "diagnostic",
              "type": "string"
            },
            {
              "internalType": "string",
              "name": "department",
              "type": "string"
            },
            {
              "internalType": "uint256",
              "name": "timeAdded",
              "type": "uint256"
            }
          ],
          "internalType": "struct Patient.Record[]",
          "name": "",
          "type": "tuple[]"
        }
      ],
      "stateMutability": "view",
      "type": "function",
      "constant": true
    }
  ],
  "bytecode": "0x608060405234801561001057600080fd5b50613390806100206000396000f3fe608060405234801561001057600080fd5b50600436106100b45760003560e01c8063b3e77dbc11610071578063b3e77dbc146101cb578063b9a5bd8c146101fb578063c9eabd8414610217578063e6dc0d8d14610247578063e822c17814610263578063ebc9b2f414610293576100b4565b80630869cfbc146100b9578063169d3201146100ed57806318a231a91461011d578063200a1b911461013b57806362fc2b9a1461016b578063acc9d5021461019b575b600080fd5b6100d360048036038101906100ce9190612329565b6102b1565b6040516100e49594939291906123f5565b60405180910390f35b61010760048036038101906101029190612493565b6104bf565b60405161011491906126e5565b60405180910390f35b6101256105c5565b604051610132919061284d565b60405180910390f35b61015560048036038101906101509190612329565b610956565b604051610162919061286f565b60405180910390f35b610185600480360381019061018091906129bf565b610994565b604051610192919061284d565b60405180910390f35b6101b560048036038101906101b09190612329565b610eee565b6040516101c2919061284d565b60405180910390f35b6101e560048036038101906101e09190612329565b611371565b6040516101f291906126e5565b60405180910390f35b61021560048036038101906102109190612a1b565b611906565b005b610231600480360381019061022c91906129bf565b611bde565b60405161023e9190612ba8565b60405180910390f35b610261600480360381019061025c9190612bc3565b611d20565b005b61027d60048036038101906102789190612329565b611fc3565b60405161028a9190612d91565b60405180910390f35b61029b6121bd565b6040516102a89190612dc2565b60405180910390f35b60006020528060005260406000206000915090508060000160009054906101000a900473ffffffffffffffffffffffffffffffffffffffff16908060010180546102fa90612e0c565b80601f016020809104026020016040519081016040528092919081815260200182805461032690612e0c565b80156103735780601f1061034857610100808354040283529160200191610373565b820191906000526020600020905b81548152906001019060200180831161035657829003601f168201915b5050505050908060020160009054906101000a900473ffffffffffffffffffffffffffffffffffffffff16908060030180546103ae90612e0c565b80601f01602080910402602001604051908101604052809291908181526020018280546103da90612e0c565b80156104275780601f106103fc57610100808354040283529160200191610427565b820191906000526020600020905b81548152906001019060200180831161040a57829003601f168201915b50505050509080600401805461043c90612e0c565b80601f016020809104026020016040519081016040528092919081815260200182805461046890612e0c565b80156104b55780601f1061048a576101008083540402835291602001916104b5565b820191906000526020600020905b81548152906001019060200180831161049857829003601f168201915b5050505050905085565b606060006104cc84611371565b90506000815167ffffffffffffffff8111156104eb576104ea612894565b5b60405190808252806020026020018201604052801561052457816020015b6105116121ca565b8152602001906001900390816105095790505b5090506000805b83518110156105b5578584828151811061054857610547612e3d565b5b60200260200101516101000151106105a25783818151811061056d5761056c612e3d565b5b602002602001015183838151811061058857610587612e3d565b5b6020026020010181905250818061059e90612e9b565b9250505b80806105ad90612e9b565b91505061052b565b5080825281935050505092915050565b6060600060038054905067ffffffffffffffff8111156105e8576105e7612894565b5b60405190808252806020026020018201604052801561062157816020015b61060e612242565b8152602001906001900390816106065790505b50905060005b60038054905081101561094e576000806003838154811061064b5761064a612e3d565b5b9060005260206000200160009054906101000a900473ffffffffffffffffffffffffffffffffffffffff1673ffffffffffffffffffffffffffffffffffffffff1673ffffffffffffffffffffffffffffffffffffffff1681526020019081526020016000206040518060a00160405290816000820160009054906101000a900473ffffffffffffffffffffffffffffffffffffffff1673ffffffffffffffffffffffffffffffffffffffff1673ffffffffffffffffffffffffffffffffffffffff16815260200160018201805461072190612e0c565b80601f016020809104026020016040519081016040528092919081815260200182805461074d90612e0c565b801561079a5780601f1061076f5761010080835404028352916020019161079a565b820191906000526020600020905b81548152906001019060200180831161077d57829003601f168201915b505050505081526020016002820160009054906101000a900473ffffffffffffffffffffffffffffffffffffffff1673ffffffffffffffffffffffffffffffffffffffff1673ffffffffffffffffffffffffffffffffffffffff16815260200160038201805461080990612e0c565b80601f016020809104026020016040519081016040528092919081815260200182805461083590612e0c565b80156108825780601f1061085757610100808354040283529160200191610882565b820191906000526020600020905b81548152906001019060200180831161086557829003601f168201915b5050505050815260200160048201805461089b90612e0c565b80601f01602080910402602001604051908101604052809291908181526020018280546108c790612e0c565b80156109145780601f106108e957610100808354040283529160200191610914565b820191906000526020600020905b8154815290600101906020018083116108f757829003601f168201915b5050505050815250508282815181106109305761092f612e3d565b5b6020026020010181905250808061094690612e9b565b915050610627565b508091505090565b60016020528060005260406000206000915090508060000160009054906101000a900473ffffffffffffffffffffffffffffffffffffffff16905081565b6060600060038054905067ffffffffffffffff8111156109b7576109b6612894565b5b6040519080825280602002602001820160405280156109f057816020015b6109dd612242565b8152602001906001900390816109d55790505b5090506000805b600380549050811015610ed5578573ffffffffffffffffffffffffffffffffffffffff1660008060038481548110610a3257610a31612e3d565b5b9060005260206000200160009054906101000a900473ffffffffffffffffffffffffffffffffffffffff1673ffffffffffffffffffffffffffffffffffffffff1673ffffffffffffffffffffffffffffffffffffffff16815260200190815260200160002060020160009054906101000a900473ffffffffffffffffffffffffffffffffffffffff1673ffffffffffffffffffffffffffffffffffffffff16148015610ba7575084604051602001610aea9190612f1f565b6040516020818303038152906040528051906020012060008060038481548110610b1757610b16612e3d565b5b9060005260206000200160009054906101000a900473ffffffffffffffffffffffffffffffffffffffff1673ffffffffffffffffffffffffffffffffffffffff1673ffffffffffffffffffffffffffffffffffffffff168152602001908152602001600020600301604051602001610b8f9190612fce565b60405160208183030381529060405280519060200120145b15610ec25760008060038381548110610bc357610bc2612e3d565b5b9060005260206000200160009054906101000a900473ffffffffffffffffffffffffffffffffffffffff1673ffffffffffffffffffffffffffffffffffffffff1673ffffffffffffffffffffffffffffffffffffffff1681526020019081526020016000206040518060a00160405290816000820160009054906101000a900473ffffffffffffffffffffffffffffffffffffffff1673ffffffffffffffffffffffffffffffffffffffff1673ffffffffffffffffffffffffffffffffffffffff168152602001600182018054610c9990612e0c565b80601f0160208091040260200160405190810160405280929190818152602001828054610cc590612e0c565b8015610d125780601f10610ce757610100808354040283529160200191610d12565b820191906000526020600020905b815481529060010190602001808311610cf557829003601f168201915b505050505081526020016002820160009054906101000a900473ffffffffffffffffffffffffffffffffffffffff1673ffffffffffffffffffffffffffffffffffffffff1673ffffffffffffffffffffffffffffffffffffffff168152602001600382018054610d8190612e0c565b80601f0160208091040260200160405190810160405280929190818152602001828054610dad90612e0c565b8015610dfa5780601f10610dcf57610100808354040283529160200191610dfa565b820191906000526020600020905b815481529060010190602001808311610ddd57829003601f168201915b50505050508152602001600482018054610e1390612e0c565b80601f0160208091040260200160405190810160405280929190818152602001828054610e3f90612e0c565b8015610e8c5780601f10610e6157610100808354040283529160200191610e8c565b820191906000526020600020905b815481529060010190602001808311610e6f57829003601f168201915b505050505081525050838381518110610ea857610ea7612e3d565b5b60200260200101819052508180610ebe90612e9b565b9250505b8080610ecd90612e9b565b9150506109f7565b508151811015610ee3578082525b819250505092915050565b6060600060038054905067ffffffffffffffff811115610f1157610f10612894565b5b604051908082528060200260200182016040528015610f4a57816020015b610f37612242565b815260200190600190039081610f2f5790505b5090506000805b600380549050811015611359578473ffffffffffffffffffffffffffffffffffffffff1660008060038481548110610f8c57610f8b612e3d565b5b9060005260206000200160009054906101000a900473ffffffffffffffffffffffffffffffffffffffff1673ffffffffffffffffffffffffffffffffffffffff1673ffffffffffffffffffffffffffffffffffffffff16815260200190815260200160002060020160009054906101000a900473ffffffffffffffffffffffffffffffffffffffff1673ffffffffffffffffffffffffffffffffffffffff1603611346576000806003838154811061104757611046612e3d565b5b9060005260206000200160009054906101000a900473ffffffffffffffffffffffffffffffffffffffff1673ffffffffffffffffffffffffffffffffffffffff1673ffffffffffffffffffffffffffffffffffffffff1681526020019081526020016000206040518060a00160405290816000820160009054906101000a900473ffffffffffffffffffffffffffffffffffffffff1673ffffffffffffffffffffffffffffffffffffffff1673ffffffffffffffffffffffffffffffffffffffff16815260200160018201805461111d90612e0c565b80601f016020809104026020016040519081016040528092919081815260200182805461114990612e0c565b80156111965780601f1061116b57610100808354040283529160200191611196565b820191906000526020600020905b81548152906001019060200180831161117957829003601f168201915b505050505081526020016002820160009054906101000a900473ffffffffffffffffffffffffffffffffffffffff1673ffffffffffffffffffffffffffffffffffffffff1673ffffffffffffffffffffffffffffffffffffffff16815260200160038201805461120590612e0c565b80601f016020809104026020016040519081016040528092919081815260200182805461123190612e0c565b801561127e5780601f106112535761010080835404028352916020019161127e565b820191906000526020600020905b81548152906001019060200180831161126157829003601f168201915b5050505050815260200160048201805461129790612e0c565b80601f01602080910402602001604051908101604052809291908181526020018280546112c390612e0c565b80156113105780601f106112e557610100808354040283529160200191611310565b820191906000526020600020905b8154815290600101906020018083116112f357829003601f168201915b50505050508152505083838151811061132c5761132b612e3d565b5b6020026020010181905250818061134290612e9b565b9250505b808061135190612e9b565b915050610f51565b508151811015611367578082525b8192505050919050565b6060818073ffffffffffffffffffffffffffffffffffffffff166000808373ffffffffffffffffffffffffffffffffffffffff1673ffffffffffffffffffffffffffffffffffffffff16815260200190815260200160002060000160009054906101000a900473ffffffffffffffffffffffffffffffffffffffff1673ffffffffffffffffffffffffffffffffffffffff1614611443576040517f08c379a000000000000000000000000000000000000000000000000000000000815260040161143a90613031565b60405180910390fd5b600160008473ffffffffffffffffffffffffffffffffffffffff1673ffffffffffffffffffffffffffffffffffffffff168152602001908152602001600020600101805480602002602001604051908101604052809291908181526020016000905b828210156118fa5783829060005260206000209060090201604051806101200160405290816000820180546114d990612e0c565b80601f016020809104026020016040519081016040528092919081815260200182805461150590612e0c565b80156115525780601f1061152757610100808354040283529160200191611552565b820191906000526020600020905b81548152906001019060200180831161153557829003601f168201915b505050505081526020016001820160009054906101000a900473ffffffffffffffffffffffffffffffffffffffff1673ffffffffffffffffffffffffffffffffffffffff1673ffffffffffffffffffffffffffffffffffffffff1681526020016002820160009054906101000a900473ffffffffffffffffffffffffffffffffffffffff1673ffffffffffffffffffffffffffffffffffffffff1673ffffffffffffffffffffffffffffffffffffffff16815260200160038201805461161790612e0c565b80601f016020809104026020016040519081016040528092919081815260200182805461164390612e0c565b80156116905780601f1061166557610100808354040283529160200191611690565b820191906000526020600020905b81548152906001019060200180831161167357829003601f168201915b505050505081526020016004820180546116a990612e0c565b80601f01602080910402602001604051908101604052809291908181526020018280546116d590612e0c565b80156117225780601f106116f757610100808354040283529160200191611722565b820191906000526020600020905b81548152906001019060200180831161170557829003601f168201915b5050505050815260200160058201805461173b90612e0c565b80601f016020809104026020016040519081016040528092919081815260200182805461176790612e0c565b80156117b45780601f10611789576101008083540402835291602001916117b4565b820191906000526020600020905b81548152906001019060200180831161179757829003601f168201915b505050505081526020016006820180546117cd90612e0c565b80601f01602080910402602001604051908101604052809291908181526020018280546117f990612e0c565b80156118465780601f1061181b57610100808354040283529160200191611846565b820191906000526020600020905b81548152906001019060200180831161182957829003601f168201915b5050505050815260200160078201805461185f90612e0c565b80601f016020809104026020016040519081016040528092919081815260200182805461188b90612e0c565b80156118d85780601f106118ad576101008083540402835291602001916118d8565b820191906000526020600020905b8154815290600101906020018083116118bb57829003601f168201915b50505050508152602001600882015481525050815260200190600101906114a5565b50505050915050919050565b878073ffffffffffffffffffffffffffffffffffffffff166000808373ffffffffffffffffffffffffffffffffffffffff1673ffffffffffffffffffffffffffffffffffffffff16815260200190815260200160002060000160009054906101000a900473ffffffffffffffffffffffffffffffffffffffff1673ffffffffffffffffffffffffffffffffffffffff16146119d6576040517f08c379a00000000000000000000000000000000000000000000000000000000081526004016119cd90613031565b60405180910390fd5b60006040518061012001604052808c81526020018b73ffffffffffffffffffffffffffffffffffffffff1681526020018873ffffffffffffffffffffffffffffffffffffffff1681526020018a8152602001898152602001878152602001868152602001858152602001848152509050600160008b73ffffffffffffffffffffffffffffffffffffffff1673ffffffffffffffffffffffffffffffffffffffff1681526020019081526020016000206001018190806001815401808255809150506001900390600052602060002090600902016000909190919091506000820151816000019081611ac791906131e8565b5060208201518160010160006101000a81548173ffffffffffffffffffffffffffffffffffffffff021916908373ffffffffffffffffffffffffffffffffffffffff16021790555060408201518160020160006101000a81548173ffffffffffffffffffffffffffffffffffffffff021916908373ffffffffffffffffffffffffffffffffffffffff1602179055506060820151816003019081611b6b91906131e8565b506080820151816004019081611b8191906131e8565b5060a0820151816005019081611b9791906131e8565b5060c0820151816006019081611bad91906131e8565b5060e0820151816007019081611bc391906131e8565b50610100820151816008015550505050505050505050505050565b60008273ffffffffffffffffffffffffffffffffffffffff166000808573ffffffffffffffffffffffffffffffffffffffff1673ffffffffffffffffffffffffffffffffffffffff16815260200190815260200160002060000160009054906101000a900473ffffffffffffffffffffffffffffffffffffffff1673ffffffffffffffffffffffffffffffffffffffff16148015611d07575081604051602001611c889190612f1f565b604051602081830303815290604052805190602001206000808573ffffffffffffffffffffffffffffffffffffffff1673ffffffffffffffffffffffffffffffffffffffff168152602001908152602001600020600401604051602001611cef9190612fce565b60405160208183030381529060405280519060200120145b15611d155760019050611d1a565b600090505b92915050565b8473ffffffffffffffffffffffffffffffffffffffff166000808773ffffffffffffffffffffffffffffffffffffffff1673ffffffffffffffffffffffffffffffffffffffff16815260200190815260200160002060000160009054906101000a900473ffffffffffffffffffffffffffffffffffffffff1673ffffffffffffffffffffffffffffffffffffffff1603611def576040517f08c379a0000000000000000000000000000000000000000000000000000000008152600401611de690613306565b60405180910390fd5b60006040518060a001604052808773ffffffffffffffffffffffffffffffffffffffff1681526020018681526020018573ffffffffffffffffffffffffffffffffffffffff168152602001848152602001838152509050806000808873ffffffffffffffffffffffffffffffffffffffff1673ffffffffffffffffffffffffffffffffffffffff16815260200190815260200160002060008201518160000160006101000a81548173ffffffffffffffffffffffffffffffffffffffff021916908373ffffffffffffffffffffffffffffffffffffffff1602179055506020820151816001019081611ee191906131e8565b5060408201518160020160006101000a81548173ffffffffffffffffffffffffffffffffffffffff021916908373ffffffffffffffffffffffffffffffffffffffff1602179055506060820151816003019081611f3e91906131e8565b506080820151816004019081611f5491906131e8565b509050506003869080600181540180825580915050600190039060005260206000200160009091909190916101000a81548173ffffffffffffffffffffffffffffffffffffffff021916908373ffffffffffffffffffffffffffffffffffffffff160217905550505050505050565b60606000611fd083611371565b90506000815167ffffffffffffffff811115611fef57611fee612894565b5b60405190808252806020026020018201604052801561202857816020015b61201561229d565b81526020019060019003908161200d5790505b5090506000805b83518110156121ae5760008673ffffffffffffffffffffffffffffffffffffffff1685838151811061206457612063612e3d565b5b60200260200101516020015173ffffffffffffffffffffffffffffffffffffffff160361213b57600060028684815181106120a2576120a1612e3d565b5b6020026020010151608001516040516120bb9190612f1f565b908152602001604051809103902054036120e3576001816120dc9190613326565b905061213a565b600160028684815181106120fa576120f9612e3d565b5b6020026020010151608001516040516121139190612f1f565b9081526020016040518091039020548261212d9190613326565b6121379190613326565b90505b5b604051806040016040528082815260200186848151811061215f5761215e612e3d565b5b60200260200101516080015181525084848151811061218157612180612e3d565b5b6020026020010181905250828061219790612e9b565b9350505080806121a690612e9b565b91505061202f565b50808252819350505050919050565b6000600380549050905090565b60405180610120016040528060608152602001600073ffffffffffffffffffffffffffffffffffffffff168152602001600073ffffffffffffffffffffffffffffffffffffffff1681526020016060815260200160608152602001606081526020016060815260200160608152602001600081525090565b6040518060a00160405280600073ffffffffffffffffffffffffffffffffffffffff16815260200160608152602001600073ffffffffffffffffffffffffffffffffffffffff16815260200160608152602001606081525090565b604051806040016040528060008152602001606081525090565b6000604051905090565b600080fd5b600080fd5b600073ffffffffffffffffffffffffffffffffffffffff82169050919050565b60006122f6826122cb565b9050919050565b612306816122eb565b811461231157600080fd5b50565b600081359050612323816122fd565b92915050565b60006020828403121561233f5761233e6122c1565b5b600061234d84828501612314565b91505092915050565b61235f816122eb565b82525050565b600081519050919050565b600082825260208201905092915050565b60005b8381101561239f578082015181840152602081019050612384565b60008484015250505050565b6000601f19601f8301169050919050565b60006123c782612365565b6123d18185612370565b93506123e1818560208601612381565b6123ea816123ab565b840191505092915050565b600060a08201905061240a6000830188612356565b818103602083015261241c81876123bc565b905061242b6040830186612356565b818103606083015261243d81856123bc565b9050818103608083015261245181846123bc565b90509695505050505050565b6000819050919050565b6124708161245d565b811461247b57600080fd5b50565b60008135905061248d81612467565b92915050565b600080604083850312156124aa576124a96122c1565b5b60006124b885828601612314565b92505060206124c98582860161247e565b9150509250929050565b600081519050919050565b600082825260208201905092915050565b6000819050602082019050919050565b600082825260208201905092915050565b600061251b82612365565b61252581856124ff565b9350612535818560208601612381565b61253e816123ab565b840191505092915050565b612552816122eb565b82525050565b6125618161245d565b82525050565b60006101208301600083015184820360008601526125858282612510565b915050602083015161259a6020860182612549565b5060408301516125ad6040860182612549565b50606083015184820360608601526125c58282612510565b915050608083015184820360808601526125df8282612510565b91505060a083015184820360a08601526125f98282612510565b91505060c083015184820360c08601526126138282612510565b91505060e083015184820360e086015261262d8282612510565b915050610100830151612644610100860182612558565b508091505092915050565b600061265b8383612567565b905092915050565b6000602082019050919050565b600061267b826124d3565b61268581856124de565b935083602082028501612697856124ef565b8060005b858110156126d357848403895281516126b4858261264f565b94506126bf83612663565b925060208a0199505060018101905061269b565b50829750879550505050505092915050565b600060208201905081810360008301526126ff8184612670565b905092915050565b600081519050919050565b600082825260208201905092915050565b6000819050602082019050919050565b600060a08301600083015161274b6000860182612549565b50602083015184820360208601526127638282612510565b91505060408301516127786040860182612549565b50606083015184820360608601526127908282612510565b915050608083015184820360808601526127aa8282612510565b9150508091505092915050565b60006127c38383612733565b905092915050565b6000602082019050919050565b60006127e382612707565b6127ed8185612712565b9350836020820285016127ff85612723565b8060005b8581101561283b578484038952815161281c85826127b7565b9450612827836127cb565b925060208a01995050600181019050612803565b50829750879550505050505092915050565b6000602082019050818103600083015261286781846127d8565b905092915050565b60006020820190506128846000830184612356565b92915050565b600080fd5b600080fd5b7f4e487b7100000000000000000000000000000000000000000000000000000000600052604160045260246000fd5b6128cc826123ab565b810181811067ffffffffffffffff821117156128eb576128ea612894565b5b80604052505050565b60006128fe6122b7565b905061290a82826128c3565b919050565b600067ffffffffffffffff82111561292a57612929612894565b5b612933826123ab565b9050602081019050919050565b82818337600083830152505050565b600061296261295d8461290f565b6128f4565b90508281526020810184848401111561297e5761297d61288f565b5b612989848285612940565b509392505050565b600082601f8301126129a6576129a561288a565b5b81356129b684826020860161294f565b91505092915050565b600080604083850312156129d6576129d56122c1565b5b60006129e485828601612314565b925050602083013567ffffffffffffffff811115612a0557612a046122c6565b5b612a1185828601612991565b9150509250929050565b60008060008060008060008060006101208a8c031215612a3e57612a3d6122c1565b5b60008a013567ffffffffffffffff811115612a5c57612a5b6122c6565b5b612a688c828d01612991565b9950506020612a798c828d01612314565b98505060408a013567ffffffffffffffff811115612a9a57612a996122c6565b5b612aa68c828d01612991565b97505060608a013567ffffffffffffffff811115612ac757612ac66122c6565b5b612ad38c828d01612991565b9650506080612ae48c828d01612314565b95505060a08a013567ffffffffffffffff811115612b0557612b046122c6565b5b612b118c828d01612991565b94505060c08a013567ffffffffffffffff811115612b3257612b316122c6565b5b612b3e8c828d01612991565b93505060e08a013567ffffffffffffffff811115612b5f57612b5e6122c6565b5b612b6b8c828d01612991565b925050610100612b7d8c828d0161247e565b9150509295985092959850929598565b60008115159050919050565b612ba281612b8d565b82525050565b6000602082019050612bbd6000830184612b99565b92915050565b600080600080600060a08688031215612bdf57612bde6122c1565b5b6000612bed88828901612314565b955050602086013567ffffffffffffffff811115612c0e57612c0d6122c6565b5b612c1a88828901612991565b9450506040612c2b88828901612314565b935050606086013567ffffffffffffffff811115612c4c57612c4b6122c6565b5b612c5888828901612991565b925050608086013567ffffffffffffffff811115612c7957612c786122c6565b5b612c8588828901612991565b9150509295509295909350565b600081519050919050565b600082825260208201905092915050565b6000819050602082019050919050565b6000604083016000830151612cd66000860182612558565b5060208301518482036020860152612cee8282612510565b9150508091505092915050565b6000612d078383612cbe565b905092915050565b6000602082019050919050565b6000612d2782612c92565b612d318185612c9d565b935083602082028501612d4385612cae565b8060005b85811015612d7f5784840389528151612d608582612cfb565b9450612d6b83612d0f565b925060208a01995050600181019050612d47565b50829750879550505050505092915050565b60006020820190508181036000830152612dab8184612d1c565b905092915050565b612dbc8161245d565b82525050565b6000602082019050612dd76000830184612db3565b92915050565b7f4e487b7100000000000000000000000000000000000000000000000000000000600052602260045260246000fd5b60006002820490506001821680612e2457607f821691505b602082108103612e3757612e36612ddd565b5b50919050565b7f4e487b7100000000000000000000000000000000000000000000000000000000600052603260045260246000fd5b7f4e487b7100000000000000000000000000000000000000000000000000000000600052601160045260246000fd5b6000612ea68261245d565b91507fffffffffffffffffffffffffffffffffffffffffffffffffffffffffffffffff8203612ed857612ed7612e6c565b5b600182019050919050565b600081905092915050565b6000612ef982612365565b612f038185612ee3565b9350612f13818560208601612381565b80840191505092915050565b6000612f2b8284612eee565b915081905092915050565b60008190508160005260206000209050919050565b60008154612f5881612e0c565b612f628186612ee3565b94506001821660008114612f7d5760018114612f9257612fc5565b60ff1983168652811515820286019350612fc5565b612f9b85612f36565b60005b83811015612fbd57815481890152600182019150602081019050612f9e565b838801955050505b50505092915050565b6000612fda8284612f4b565b915081905092915050565b7f50617469656e7420646f6573206e6f7420657869737400000000000000000000600082015250565b600061301b601683612370565b915061302682612fe5565b602082019050919050565b6000602082019050818103600083015261304a8161300e565b9050919050565b60006020601f8301049050919050565b600082821b905092915050565b60006008830261309e7fffffffffffffffffffffffffffffffffffffffffffffffffffffffffffffffff82613061565b6130a88683613061565b95508019841693508086168417925050509392505050565b6000819050919050565b60006130e56130e06130db8461245d565b6130c0565b61245d565b9050919050565b6000819050919050565b6130ff836130ca565b61311361310b826130ec565b84845461306e565b825550505050565b600090565b61312861311b565b6131338184846130f6565b505050565b5b818110156131575761314c600082613120565b600181019050613139565b5050565b601f82111561319c5761316d81612f36565b61317684613051565b81016020851015613185578190505b61319961319185613051565b830182613138565b50505b505050565b600082821c905092915050565b60006131bf600019846008026131a1565b1980831691505092915050565b60006131d883836131ae565b9150826002028217905092915050565b6131f182612365565b67ffffffffffffffff81111561320a57613209612894565b5b6132148254612e0c565b61321f82828561315b565b600060209050601f8311600181146132525760008415613240578287015190505b61324a85826131cc565b8655506132b2565b601f19841661326086612f36565b60005b8281101561328857848901518255600182019150602085019450602081019050613263565b868310156132a557848901516132a1601f8916826131ae565b8355505b6001600288020188555050505b505050505050565b7f546869732070617469656e7420616c7265616479206578697374732e00000000600082015250565b60006132f0601c83612370565b91506132fb826132ba565b602082019050919050565b6000602082019050818103600083015261331f816132e3565b9050919050565b60006133318261245d565b915061333c8361245d565b925082820190508082111561335457613353612e6c565b5b9291505056fea2646970667358221220d1c17e97c9feccd34281c34fadda91e3bdbed984f11af3475e2f95e5ac3e2fb164736f6c63430008110033",
  "immutableReferences": {},
  "source": "// SPDX-License-Identifier: MIT\npragma solidity >=0.4.22 <0.9.0;\n\ncontract Patient { \n  \n  struct Record { \n    string cid;\n    address patientId;\n    address doctorId;\n    string patientName;\n    string doctorName;\n    string symptoms;\n    string diagnostic;\n    string department;\n    uint256 timeAdded;\n  }\n\n  struct PatientDetails {\n    address id;\n    string name;\n    address clinicAddress;\n    string department;\n    string password;\n  }\n\n  struct PatientRecords {\n    address id;\n    Record[] records;\n  }\n\n  // The structure helps us in performing groupBy Clause\n  struct groupBy {\n      uint count;\n      string doctorName;\n  }\n\n  mapping (address => PatientDetails) public patients;\n  mapping (address => PatientRecords) public patientRecords;\n  mapping(string => uint) countHelper; \n\n  address[] patientAddress;\n\n  modifier patientExists(address patientId) {\n    require(patients[patientId].id == patientId, \"Patient does not exist\");\n    _;\n  }\n  \n  function addPatient(address _patientId, string memory _name, address clinicID, string memory _department, string memory _password) public {\n    require(patients[_patientId].id != _patientId, \"This patient already exists.\");\n    \n    PatientDetails memory patient = PatientDetails(_patientId, _name, clinicID, _department, _password);\n    patients[_patientId] = patient;\n    patientAddress.push(_patientId);\n  }\n\n  function addRecord(string memory _cid, address _patientId, string memory _patientName, string memory _doctorName, \n                     address _doctorId, string memory symptoms, string memory diagnostic, string memory department, \n                     uint256 time) public \n                     patientExists(_patientId){\n    Record memory record = Record(_cid, _patientId, _doctorId, _patientName, _doctorName, symptoms, diagnostic, department, time);\n    \n    patientRecords[_patientId].records.push(record);\n  } \n\n  // function getRecords(address _patientId) public view patientExists(_patientId) \n  // returns (Record[] memory) {\n  //  return patientRecords[_patientId].records;\n  // } \n\n  function checkPatient(address _patientId, string memory _password) public view returns (bool) {\n    if (patients[_patientId].id == _patientId && \n            keccak256(abi.encodePacked(patients[_patientId].password)) == keccak256(abi.encodePacked(_password))) {\n              return true;\n    }\n    \n    return false;\n  }\n\n  function getRegisteredPatients(address clinicID) public view returns(PatientDetails [] memory) {\n    PatientDetails[] memory patientArray = new PatientDetails[](patientAddress.length);\n    uint count = 0;\n    \n    for(uint i = 0; i < patientAddress.length; i++) {\n      if(patients[patientAddress[i]].clinicAddress == clinicID) {\n        patientArray[count] = patients[patientAddress[i]];\n        count++;\n      }\n    }\n    \n    if (count < patientArray.length) {\n        assembly {\n            mstore(patientArray, count)\n        }\n    }\n\n    return patientArray;\n  } \n\n  function getAllPatients() public view returns(PatientDetails [] memory) {\n    PatientDetails[] memory patientArray = new PatientDetails[](patientAddress.length);\n    \n    for(uint i = 0; i < patientAddress.length; i++) {\n      patientArray[i] = patients[patientAddress[i]];\n    }\n\n    return patientArray;\n  }\n\n  function getPatientsCount() public view returns(uint) {\n    return patientAddress.length;\n  }\n\n  function getRegisteredPatientsRecordsByID(address patientID) public view patientExists(patientID) returns (Record[] memory) {\n    return patientRecords[patientID].records;\n  }\n\n  function getRegisteredPatientsByDept(address _clinicAddress, string memory deptName) public view returns (PatientDetails[] memory) {\n    PatientDetails[] memory patientArray = new PatientDetails[](patientAddress.length);\n    uint count = 0;\n\n    for (uint i = 0; i < patientAddress.length; i++) {\n        if (patients[patientAddress[i]].clinicAddress == _clinicAddress && keccak256(abi.encodePacked(patients[patientAddress[i]].department)) == keccak256(abi.encodePacked(deptName))) {\n            patientArray[count] = patients[patientAddress[i]];\n            count++;\n        }\n    }\n\n    // Resize the array length to count\n    if (count < patientArray.length) {\n        assembly {\n            mstore(patientArray, count)\n        }\n    }\n\n    return patientArray;\n  }\n\n  function groupByClause(address patientID) public view returns(groupBy[] memory) {\n      Record[] memory records = getRegisteredPatientsRecordsByID(patientID);\n      groupBy[] memory recordsFromGroupByClause = new groupBy[](records.length);\n      uint256 counter = 0;\n\n      for (uint256 i = 0; i < records.length; i++) {\n          uint dummyCount = 0;\n          if(records[i].patientId == patientID) {\n              if(countHelper[records[i].doctorName] == 0) {\n                  dummyCount += 1;\n              } else {\n                  dummyCount = dummyCount + countHelper[records[i].doctorName] + 1; \n              }\n          }\n          recordsFromGroupByClause[counter] = groupBy(dummyCount, records[i].doctorName);\n          counter++;\n      }\n      assembly {\n          mstore(recordsFromGroupByClause, counter)\n      }\n      return recordsFromGroupByClause;\n  } \n\n  function getPatientRecordsFromSpecificDate(address patientID, uint time) public view returns(Record[] memory) {\n    Record[] memory records = getRegisteredPatientsRecordsByID(patientID);\n    Record[] memory resultRecords = new Record[](records.length);\n    uint counter = 0;\n    for(uint i = 0; i < records.length; i++) {\n      if(records[i].timeAdded >= time) {\n        resultRecords[counter] = records[i];\n        counter++;\n      }\n    }\n    assembly {\n        mstore(resultRecords, counter)\n    }\n    return resultRecords;\n  }\n} \n",
  "sourcePath": "/home/suvam/Documents/ProjectIntegrated/finaldApp/truffle/contracts/Patient.sol",
  "compiler": {
    "name": "solc",
    "version": "0.8.17+commit.8df45f5f.Emscripten.clang"
  },
  "schemaVersion": "3.4.10",
  "updatedAt": "2023-05-04T05:10:33.407Z",
  "networkType": "ethereum",
  "devdoc": {
    "kind": "dev",
    "methods": {},
    "version": 1
  },
  "userdoc": {
    "kind": "user",
    "methods": {},
    "version": 1
  }
}