{
  "contractName": "QueryManager",
  "abi": [
    {
      "inputs": [
        {
          "internalType": "address",
          "name": "ClinicContractAddress",
          "type": "address"
        },
        {
          "internalType": "address",
          "name": "DoctorContractAddress",
          "type": "address"
        },
        {
          "internalType": "address",
          "name": "PatientContractAddress",
          "type": "address"
        }
      ],
      "stateMutability": "nonpayable",
      "type": "constructor"
    },
    {
      "inputs": [],
      "name": "doctorNaturalJoinPatient",
      "outputs": [
        {
          "components": [
            {
              "internalType": "string",
              "name": "doctorName",
              "type": "string"
            },
            {
              "internalType": "address",
              "name": "doctorID",
              "type": "address"
            },
            {
              "internalType": "string",
              "name": "patientName",
              "type": "string"
            },
            {
              "internalType": "address",
              "name": "patientID",
              "type": "address"
            },
            {
              "internalType": "string",
              "name": "clinicName",
              "type": "string"
            },
            {
              "internalType": "string",
              "name": "department",
              "type": "string"
            }
          ],
          "internalType": "struct QueryManager.doctorNaturalJoinPatientResult[]",
          "name": "",
          "type": "tuple[]"
        }
      ],
      "stateMutability": "view",
      "type": "function"
    },
    {
      "inputs": [
        {
          "components": [
            {
              "internalType": "address",
              "name": "id",
              "type": "address"
            },
            {
              "internalType": "string",
              "name": "name",
              "type": "string"
            },
            {
              "internalType": "string",
              "name": "clinicName",
              "type": "string"
            },
            {
              "internalType": "string",
              "name": "department",
              "type": "string"
            },
            {
              "internalType": "string",
              "name": "password",
              "type": "string"
            }
          ],
          "internalType": "struct QueryManager.DoctorDetails[]",
          "name": "left",
          "type": "tuple[]"
        },
        {
          "components": [
            {
              "internalType": "address",
              "name": "id",
              "type": "address"
            },
            {
              "internalType": "string",
              "name": "name",
              "type": "string"
            },
            {
              "internalType": "string",
              "name": "department",
              "type": "string"
            },
            {
              "internalType": "string",
              "name": "password",
              "type": "string"
            }
          ],
          "internalType": "struct QueryManager.PatientDetails[]",
          "name": "right",
          "type": "tuple[]"
        }
      ],
      "name": "naturalJoin",
      "outputs": [
        {
          "components": [
            {
              "internalType": "string",
              "name": "doctorName",
              "type": "string"
            },
            {
              "internalType": "address",
              "name": "doctorID",
              "type": "address"
            },
            {
              "internalType": "string",
              "name": "patientName",
              "type": "string"
            },
            {
              "internalType": "address",
              "name": "patientID",
              "type": "address"
            },
            {
              "internalType": "string",
              "name": "clinicName",
              "type": "string"
            },
            {
              "internalType": "string",
              "name": "department",
              "type": "string"
            }
          ],
          "internalType": "struct QueryManager.doctorNaturalJoinPatientResult[]",
          "name": "",
          "type": "tuple[]"
        }
      ],
      "stateMutability": "pure",
      "type": "function"
    },
    {
      "inputs": [
        {
          "internalType": "address",
          "name": "patientID",
          "type": "address"
        },
        {
          "internalType": "uint256",
          "name": "date",
          "type": "uint256"
        }
      ],
      "name": "retrieveAllDiagnosisofPatientFromSpecificDate",
      "outputs": [
        {
          "components": [
            {
              "internalType": "string",
              "name": "cid",
              "type": "string"
            },
            {
              "internalType": "address",
              "name": "patientId",
              "type": "address"
            },
            {
              "internalType": "address",
              "name": "doctorId",
              "type": "address"
            },
            {
              "internalType": "string",
              "name": "patientName",
              "type": "string"
            },
            {
              "internalType": "string",
              "name": "doctorName",
              "type": "string"
            },
            {
              "internalType": "string",
              "name": "symptoms",
              "type": "string"
            },
            {
              "internalType": "string",
              "name": "diagnostic",
              "type": "string"
            },
            {
              "internalType": "string",
              "name": "department",
              "type": "string"
            },
            {
              "internalType": "uint256",
              "name": "timeAdded",
              "type": "uint256"
            }
          ],
          "internalType": "struct QueryManager.Record[]",
          "name": "",
          "type": "tuple[]"
        }
      ],
      "stateMutability": "view",
      "type": "function"
    },
    {
      "inputs": [
        {
          "internalType": "address",
          "name": "patientID",
          "type": "address"
        }
      ],
      "name": "groupByClause",
      "outputs": [
        {
          "components": [
            {
              "internalType": "uint256",
              "name": "count",
              "type": "uint256"
            },
            {
              "internalType": "string",
              "name": "doctorName",
              "type": "string"
            }
          ],
          "internalType": "struct QueryManager.groupBy[]",
          "name": "",
          "type": "tuple[]"
        }
      ],
      "stateMutability": "view",
      "type": "function"
    }
  ],
  "bytecode": "0x60806040523480156200001157600080fd5b50604051620025a4380380620025a483398181016040528101906200003791906200016c565b826000806101000a81548173ffffffffffffffffffffffffffffffffffffffff021916908373ffffffffffffffffffffffffffffffffffffffff16021790555081600160006101000a81548173ffffffffffffffffffffffffffffffffffffffff021916908373ffffffffffffffffffffffffffffffffffffffff16021790555080600260006101000a81548173ffffffffffffffffffffffffffffffffffffffff021916908373ffffffffffffffffffffffffffffffffffffffff160217905550505050620001c8565b600080fd5b600073ffffffffffffffffffffffffffffffffffffffff82169050919050565b6000620001348262000107565b9050919050565b620001468162000127565b81146200015257600080fd5b50565b60008151905062000166816200013b565b92915050565b60008060006060848603121562000188576200018762000102565b5b6000620001988682870162000155565b9350506020620001ab8682870162000155565b9250506040620001be8682870162000155565b9150509250925092565b6123cc80620001d86000396000f3fe608060405234801561001057600080fd5b506004361061004c5760003560e01c806309271999146100515780634a125832146100815780639fb08f1e1461009f578063e822c178146100cf575b600080fd5b61006b600480360381019061006691906114b0565b6100ff565b6040516100789190611716565b60405180910390f35b610089610441565b6040516100969190611716565b60405180910390f35b6100b960048036038101906100b4919061176e565b61084c565b6040516100c69190611967565b60405180910390f35b6100e960048036038101906100e49190611989565b610b50565b6040516100f69190611ab5565b60405180910390f35b6060600083519050600083519050600080828461011c9190611b06565b67ffffffffffffffff81111561013557610134610f89565b5b60405190808252806020026020018201604052801561016e57816020015b61015b610de8565b8152602001906001900390816101535790505b50905060005b848110156104305760005b8481101561041c5787818151811061019a57610199611b3a565b5b6020026020010151604001516040516020016101b69190611ba5565b604051602081830303815290604052805190602001208983815181106101df576101de611b3a565b5b6020026020010151606001516040516020016101fb9190611ba5565b60405160208183030381529060405280519060200120036104095788828151811061022957610228611b3a565b5b60200260200101516000015183858151811061024857610247611b3a565b5b60200260200101516020019073ffffffffffffffffffffffffffffffffffffffff16908173ffffffffffffffffffffffffffffffffffffffff168152505088828151811061029957610298611b3a565b5b6020026020010151602001518385815181106102b8576102b7611b3a565b5b6020026020010151600001819052508882815181106102da576102d9611b3a565b5b6020026020010151604001518385815181106102f9576102f8611b3a565b5b60200260200101516080018190525087818151811061031b5761031a611b3a565b5b60200260200101516000015183858151811061033a57610339611b3a565b5b60200260200101516060019073ffffffffffffffffffffffffffffffffffffffff16908173ffffffffffffffffffffffffffffffffffffffff168152505087818151811061038b5761038a611b3a565b5b6020026020010151602001518385815181106103aa576103a9611b3a565b5b6020026020010151604001819052508781815181106103cc576103cb611b3a565b5b6020026020010151604001518385815181106103eb576103ea611b3a565b5b602002602001015160a00181905250838061040590611bbc565b9450505b808061041490611bbc565b91505061017f565b50808061042890611bbc565b915050610174565b508181528094505050505092915050565b60606000600160009054906101000a900473ffffffffffffffffffffffffffffffffffffffff1690506000600260009054906101000a900473ffffffffffffffffffffffffffffffffffffffff16905060008273ffffffffffffffffffffffffffffffffffffffff166330c0dfc16040518163ffffffff1660e01b8152600401600060405180830381865afa1580156104de573d6000803e3d6000fd5b505050506040513d6000823e3d601f19601f820116820180604052508101906105079190611e66565b90506000815167ffffffffffffffff81111561052657610525610f89565b5b60405190808252806020026020018201604052801561055f57816020015b61054c610e4a565b8152602001906001900390816105445790505b50905060005b8251811015610672576040518060a0016040528084838151811061058c5761058b611b3a565b5b60200260200101516000015173ffffffffffffffffffffffffffffffffffffffff1681526020018483815181106105c6576105c5611b3a565b5b60200260200101516020015181526020018483815181106105ea576105e9611b3a565b5b602002602001015160400151815260200184838151811061060e5761060d611b3a565b5b602002602001015160600151815260200184838151811061063257610631611b3a565b5b60200260200101516080015181525082828151811061065457610653611b3a565b5b6020026020010181905250808061066a90611bbc565b915050610565565b5060008373ffffffffffffffffffffffffffffffffffffffff1663095600566040518163ffffffff1660e01b8152600401600060405180830381865afa1580156106c0573d6000803e3d6000fd5b505050506040513d6000823e3d601f19601f820116820180604052508101906106e9919061205c565b90506000815167ffffffffffffffff81111561070857610707610f89565b5b60405190808252806020026020018201604052801561074157816020015b61072e610e8f565b8152602001906001900390816107265790505b50905060005b825181101561083057604051806080016040528084838151811061076e5761076d611b3a565b5b60200260200101516000015173ffffffffffffffffffffffffffffffffffffffff1681526020018483815181106107a8576107a7611b3a565b5b60200260200101516020015181526020018483815181106107cc576107cb611b3a565b5b60200260200101516040015181526020018483815181106107f0576107ef611b3a565b5b60200260200101516060015181525082828151811061081257610811611b3a565b5b6020026020010181905250808061082890611bbc565b915050610747565b50600061083d84836100ff565b90508097505050505050505090565b60606000600260009054906101000a900473ffffffffffffffffffffffffffffffffffffffff16905060008173ffffffffffffffffffffffffffffffffffffffff1663a0076e84866040518263ffffffff1660e01b81526004016108b091906120b4565b600060405180830381865afa1580156108cd573d6000803e3d6000fd5b505050506040513d6000823e3d601f19601f820116820180604052508101906108f6919061234d565b90506000815167ffffffffffffffff81111561091557610914610f89565b5b60405190808252806020026020018201604052801561094e57816020015b61093b610ecd565b8152602001906001900390816109335790505b5090506000805b8351811015610b3f578684828151811061097257610971611b3a565b5b6020026020010151610100015110610b2c576040518061012001604052808583815181106109a3576109a2611b3a565b5b60200260200101516000015181526020018583815181106109c7576109c6611b3a565b5b60200260200101516020015173ffffffffffffffffffffffffffffffffffffffff168152602001858381518110610a0157610a00611b3a565b5b60200260200101516040015173ffffffffffffffffffffffffffffffffffffffff168152602001858381518110610a3b57610a3a611b3a565b5b6020026020010151606001518152602001858381518110610a5f57610a5e611b3a565b5b6020026020010151608001518152602001858381518110610a8357610a82611b3a565b5b602002602001015160a001518152602001858381518110610aa757610aa6611b3a565b5b602002602001015160c001518152602001858381518110610acb57610aca611b3a565b5b602002602001015160e001518152602001858381518110610aef57610aee611b3a565b5b60200260200101516101000151815250838281518110610b1257610b11611b3a565b5b60200260200101819052508180610b2890611bbc565b9250505b8080610b3790611bbc565b915050610955565b508082528194505050505092915050565b60606000600260009054906101000a900473ffffffffffffffffffffffffffffffffffffffff16905060008173ffffffffffffffffffffffffffffffffffffffff1663a0076e84856040518263ffffffff1660e01b8152600401610bb491906120b4565b600060405180830381865afa158015610bd1573d6000803e3d6000fd5b505050506040513d6000823e3d601f19601f82011682018060405250810190610bfa919061234d565b90506000815167ffffffffffffffff811115610c1957610c18610f89565b5b604051908082528060200260200182016040528015610c5257816020015b610c3f610f45565b815260200190600190039081610c375790505b5090506000805b8351811015610dd85760008773ffffffffffffffffffffffffffffffffffffffff16858381518110610c8e57610c8d611b3a565b5b60200260200101516020015173ffffffffffffffffffffffffffffffffffffffff1603610d655760006003868481518110610ccc57610ccb611b3a565b5b602002602001015160800151604051610ce59190611ba5565b90815260200160405180910390205403610d0d57600181610d069190611b06565b9050610d64565b60016003868481518110610d2457610d23611b3a565b5b602002602001015160800151604051610d3d9190611ba5565b90815260200160405180910390205482610d579190611b06565b610d619190611b06565b90505b5b6040518060400160405280828152602001868481518110610d8957610d88611b3a565b5b602002602001015160800151815250848381518110610dab57610daa611b3a565b5b60200260200101819052508280610dc190611bbc565b935050508080610dd090611bbc565b915050610c59565b5080825281945050505050919050565b6040518060c0016040528060608152602001600073ffffffffffffffffffffffffffffffffffffffff16815260200160608152602001600073ffffffffffffffffffffffffffffffffffffffff16815260200160608152602001606081525090565b6040518060a00160405280600073ffffffffffffffffffffffffffffffffffffffff168152602001606081526020016060815260200160608152602001606081525090565b6040518060800160405280600073ffffffffffffffffffffffffffffffffffffffff1681526020016060815260200160608152602001606081525090565b60405180610120016040528060608152602001600073ffffffffffffffffffffffffffffffffffffffff168152602001600073ffffffffffffffffffffffffffffffffffffffff1681526020016060815260200160608152602001606081526020016060815260200160608152602001600081525090565b604051806040016040528060008152602001606081525090565b6000604051905090565b600080fd5b600080fd5b600080fd5b6000601f19601f8301169050919050565b7f4e487b7100000000000000000000000000000000000000000000000000000000600052604160045260246000fd5b610fc182610f78565b810181811067ffffffffffffffff82111715610fe057610fdf610f89565b5b80604052505050565b6000610ff3610f5f565b9050610fff8282610fb8565b919050565b600067ffffffffffffffff82111561101f5761101e610f89565b5b602082029050602081019050919050565b600080fd5b600080fd5b600080fd5b600073ffffffffffffffffffffffffffffffffffffffff82169050919050565b600061106a8261103f565b9050919050565b61107a8161105f565b811461108557600080fd5b50565b60008135905061109781611071565b92915050565b600080fd5b600067ffffffffffffffff8211156110bd576110bc610f89565b5b6110c682610f78565b9050602081019050919050565b82818337600083830152505050565b60006110f56110f0846110a2565b610fe9565b9050828152602081018484840111156111115761111061109d565b5b61111c8482856110d3565b509392505050565b600082601f83011261113957611138610f73565b5b81356111498482602086016110e2565b91505092915050565b600060a0828403121561116857611167611035565b5b61117260a0610fe9565b9050600061118284828501611088565b600083015250602082013567ffffffffffffffff8111156111a6576111a561103a565b5b6111b284828501611124565b602083015250604082013567ffffffffffffffff8111156111d6576111d561103a565b5b6111e284828501611124565b604083015250606082013567ffffffffffffffff8111156112065761120561103a565b5b61121284828501611124565b606083015250608082013567ffffffffffffffff8111156112365761123561103a565b5b61124284828501611124565b60808301525092915050565b600061126161125c84611004565b610fe9565b9050808382526020820190506020840283018581111561128457611283611030565b5b835b818110156112cb57803567ffffffffffffffff8111156112a9576112a8610f73565b5b8086016112b68982611152565b85526020850194505050602081019050611286565b5050509392505050565b600082601f8301126112ea576112e9610f73565b5b81356112fa84826020860161124e565b91505092915050565b600067ffffffffffffffff82111561131e5761131d610f89565b5b602082029050602081019050919050565b60006080828403121561134557611344611035565b5b61134f6080610fe9565b9050600061135f84828501611088565b600083015250602082013567ffffffffffffffff8111156113835761138261103a565b5b61138f84828501611124565b602083015250604082013567ffffffffffffffff8111156113b3576113b261103a565b5b6113bf84828501611124565b604083015250606082013567ffffffffffffffff8111156113e3576113e261103a565b5b6113ef84828501611124565b60608301525092915050565b600061140e61140984611303565b610fe9565b9050808382526020820190506020840283018581111561143157611430611030565b5b835b8181101561147857803567ffffffffffffffff81111561145657611455610f73565b5b808601611463898261132f565b85526020850194505050602081019050611433565b5050509392505050565b600082601f83011261149757611496610f73565b5b81356114a78482602086016113fb565b91505092915050565b600080604083850312156114c7576114c6610f69565b5b600083013567ffffffffffffffff8111156114e5576114e4610f6e565b5b6114f1858286016112d5565b925050602083013567ffffffffffffffff81111561151257611511610f6e565b5b61151e85828601611482565b9150509250929050565b600081519050919050565b600082825260208201905092915050565b6000819050602082019050919050565b600081519050919050565b600082825260208201905092915050565b60005b8381101561158e578082015181840152602081019050611573565b60008484015250505050565b60006115a582611554565b6115af818561155f565b93506115bf818560208601611570565b6115c881610f78565b840191505092915050565b6115dc8161105f565b82525050565b600060c08301600083015184820360008601526115ff828261159a565b915050602083015161161460208601826115d3565b506040830151848203604086015261162c828261159a565b915050606083015161164160608601826115d3565b5060808301518482036080860152611659828261159a565b91505060a083015184820360a0860152611673828261159a565b9150508091505092915050565b600061168c83836115e2565b905092915050565b6000602082019050919050565b60006116ac82611528565b6116b68185611533565b9350836020820285016116c885611544565b8060005b8581101561170457848403895281516116e58582611680565b94506116f083611694565b925060208a019950506001810190506116cc565b50829750879550505050505092915050565b6000602082019050818103600083015261173081846116a1565b905092915050565b6000819050919050565b61174b81611738565b811461175657600080fd5b50565b60008135905061176881611742565b92915050565b6000806040838503121561178557611784610f69565b5b600061179385828601611088565b92505060206117a485828601611759565b9150509250929050565b600081519050919050565b600082825260208201905092915050565b6000819050602082019050919050565b6117e381611738565b82525050565b6000610120830160008301518482036000860152611807828261159a565b915050602083015161181c60208601826115d3565b50604083015161182f60408601826115d3565b5060608301518482036060860152611847828261159a565b91505060808301518482036080860152611861828261159a565b91505060a083015184820360a086015261187b828261159a565b91505060c083015184820360c0860152611895828261159a565b91505060e083015184820360e08601526118af828261159a565b9150506101008301516118c66101008601826117da565b508091505092915050565b60006118dd83836117e9565b905092915050565b6000602082019050919050565b60006118fd826117ae565b61190781856117b9565b935083602082028501611919856117ca565b8060005b85811015611955578484038952815161193685826118d1565b9450611941836118e5565b925060208a0199505060018101905061191d565b50829750879550505050505092915050565b6000602082019050818103600083015261198181846118f2565b905092915050565b60006020828403121561199f5761199e610f69565b5b60006119ad84828501611088565b91505092915050565b600081519050919050565b600082825260208201905092915050565b6000819050602082019050919050565b60006040830160008301516119fa60008601826117da565b5060208301518482036020860152611a12828261159a565b9150508091505092915050565b6000611a2b83836119e2565b905092915050565b6000602082019050919050565b6000611a4b826119b6565b611a5581856119c1565b935083602082028501611a67856119d2565b8060005b85811015611aa35784840389528151611a848582611a1f565b9450611a8f83611a33565b925060208a01995050600181019050611a6b565b50829750879550505050505092915050565b60006020820190508181036000830152611acf8184611a40565b905092915050565b7f4e487b7100000000000000000000000000000000000000000000000000000000600052601160045260246000fd5b6000611b1182611738565b9150611b1c83611738565b9250828201905080821115611b3457611b33611ad7565b5b92915050565b7f4e487b7100000000000000000000000000000000000000000000000000000000600052603260045260246000fd5b600081905092915050565b6000611b7f82611554565b611b898185611b69565b9350611b99818560208601611570565b80840191505092915050565b6000611bb18284611b74565b915081905092915050565b6000611bc782611738565b91507fffffffffffffffffffffffffffffffffffffffffffffffffffffffffffffffff8203611bf957611bf8611ad7565b5b600182019050919050565b600067ffffffffffffffff821115611c1f57611c1e610f89565b5b602082029050602081019050919050565b600081519050611c3f81611071565b92915050565b6000611c58611c53846110a2565b610fe9565b905082815260208101848484011115611c7457611c7361109d565b5b611c7f848285611570565b509392505050565b600082601f830112611c9c57611c9b610f73565b5b8151611cac848260208601611c45565b91505092915050565b600060a08284031215611ccb57611cca611035565b5b611cd560a0610fe9565b90506000611ce584828501611c30565b600083015250602082015167ffffffffffffffff811115611d0957611d0861103a565b5b611d1584828501611c87565b602083015250604082015167ffffffffffffffff811115611d3957611d3861103a565b5b611d4584828501611c87565b604083015250606082015167ffffffffffffffff811115611d6957611d6861103a565b5b611d7584828501611c87565b606083015250608082015167ffffffffffffffff811115611d9957611d9861103a565b5b611da584828501611c87565b60808301525092915050565b6000611dc4611dbf84611c04565b610fe9565b90508083825260208201905060208402830185811115611de757611de6611030565b5b835b81811015611e2e57805167ffffffffffffffff811115611e0c57611e0b610f73565b5b808601611e198982611cb5565b85526020850194505050602081019050611de9565b5050509392505050565b600082601f830112611e4d57611e4c610f73565b5b8151611e5d848260208601611db1565b91505092915050565b600060208284031215611e7c57611e7b610f69565b5b600082015167ffffffffffffffff811115611e9a57611e99610f6e565b5b611ea684828501611e38565b91505092915050565b600067ffffffffffffffff821115611eca57611ec9610f89565b5b602082029050602081019050919050565b600060808284031215611ef157611ef0611035565b5b611efb6080610fe9565b90506000611f0b84828501611c30565b600083015250602082015167ffffffffffffffff811115611f2f57611f2e61103a565b5b611f3b84828501611c87565b602083015250604082015167ffffffffffffffff811115611f5f57611f5e61103a565b5b611f6b84828501611c87565b604083015250606082015167ffffffffffffffff811115611f8f57611f8e61103a565b5b611f9b84828501611c87565b60608301525092915050565b6000611fba611fb584611eaf565b610fe9565b90508083825260208201905060208402830185811115611fdd57611fdc611030565b5b835b8181101561202457805167ffffffffffffffff81111561200257612001610f73565b5b80860161200f8982611edb565b85526020850194505050602081019050611fdf565b5050509392505050565b600082601f83011261204357612042610f73565b5b8151612053848260208601611fa7565b91505092915050565b60006020828403121561207257612071610f69565b5b600082015167ffffffffffffffff8111156120905761208f610f6e565b5b61209c8482850161202e565b91505092915050565b6120ae8161105f565b82525050565b60006020820190506120c960008301846120a5565b92915050565b600067ffffffffffffffff8211156120ea576120e9610f89565b5b602082029050602081019050919050565b60008151905061210a81611742565b92915050565b6000610120828403121561212757612126611035565b5b612132610120610fe9565b9050600082015167ffffffffffffffff8111156121525761215161103a565b5b61215e84828501611c87565b600083015250602061217284828501611c30565b602083015250604061218684828501611c30565b604083015250606082015167ffffffffffffffff8111156121aa576121a961103a565b5b6121b684828501611c87565b606083015250608082015167ffffffffffffffff8111156121da576121d961103a565b5b6121e684828501611c87565b60808301525060a082015167ffffffffffffffff81111561220a5761220961103a565b5b61221684828501611c87565b60a08301525060c082015167ffffffffffffffff81111561223a5761223961103a565b5b61224684828501611c87565b60c08301525060e082015167ffffffffffffffff81111561226a5761226961103a565b5b61227684828501611c87565b60e08301525061010061228b848285016120fb565b6101008301525092915050565b60006122ab6122a6846120cf565b610fe9565b905080838252602082019050602084028301858111156122ce576122cd611030565b5b835b8181101561231557805167ffffffffffffffff8111156122f3576122f2610f73565b5b8086016123008982612110565b855260208501945050506020810190506122d0565b5050509392505050565b600082601f83011261233457612333610f73565b5b8151612344848260208601612298565b91505092915050565b60006020828403121561236357612362610f69565b5b600082015167ffffffffffffffff81111561238157612380610f6e565b5b61238d8482850161231f565b9150509291505056fea264697066735822122039c90f85c3e410df8ccf333e67a20529c9fd280f17f91f0839083633aae984d664736f6c63430008110033",
  "immutableReferences": {},
  "source": "// SPDX-License-Identifier: MIT\npragma solidity >= 0.4.22 <0.9.0;\n\n// Using Clinic, Doctor and Patient Contracts here\nimport \"./Clinic.sol\";\nimport \"./Doctor.sol\";\nimport \"./Patient.sol\";\n\ncontract QueryManager {\n    address clinicContractAddress;\n    address doctorContractAddress;\n    address patientContractAddress;\n\n    constructor(\n      address ClinicContractAddress,\n      address DoctorContractAddress,\n      address PatientContractAddress\n    ){\n        clinicContractAddress = ClinicContractAddress;\n        doctorContractAddress = DoctorContractAddress;\n        patientContractAddress = PatientContractAddress;\n    }\n\n    struct doctorNaturalJoinPatientResult {\n        string doctorName;\n        address doctorID;\n        string patientName;\n        address patientID;\n        string clinicName;\n        string department;\n    }\n\n    // struct ClinicDetails {\n    //     address id;\n    //     string name;\n    //     string location;\n    //     string password;\n    // }\n\n    struct DoctorDetails {\n        address id;\n        string name;\n        string clinicName;\n        string department;\n        string password;\n    }\n\n    struct Record { \n        string cid;\n        address patientId;\n        address doctorId;\n        string patientName;\n        string doctorName;\n        string symptoms;\n        string diagnostic;\n        string department;\n        uint256 timeAdded;\n    }\n\n    struct PatientDetails {\n        address id;\n        string name;\n        string department;\n        string password;\n    }\n\n    // struct PatientRecords {\n    //     address id;\n    //     Record[] records;\n    // }    \n\n    // The structure helps us in performing groupBy Clause\n    struct groupBy {\n        uint count;\n        string doctorName;\n    }\n    mapping(string => uint) countHelper; \n    //////////////////////////////////////////////////////\n\n    function doctorNaturalJoinPatient() public view returns(doctorNaturalJoinPatientResult [] memory) {\n        Doctor doctorContract = Doctor(doctorContractAddress);\n        Patient patientContract = Patient(patientContractAddress);\n\n        // Fetching all the registered doctors in the system\n        Doctor.DoctorDetails[] memory doctors = doctorContract.getRegisteredDoctors();\n        QueryManager.DoctorDetails[] memory registeredDoctors = new QueryManager.DoctorDetails[](doctors.length);\n\n        for (uint256 i = 0; i < doctors.length; i++) {\n            registeredDoctors[i] = QueryManager.DoctorDetails(doctors[i].id, doctors[i].name, doctors[i].clinicName, doctors[i].department, doctors[i].password);\n        }\n\n        // Fetching all the registered patients in the system\n        Patient.PatientDetails[] memory patients = patientContract.getRegisteredPatients();\n        QueryManager.PatientDetails[] memory registeredPatients = new QueryManager.PatientDetails[](patients.length);\n\n        for (uint256 i = 0; i < patients.length; i++) {\n            registeredPatients[i] = QueryManager.PatientDetails(patients[i].id, patients[i].name, patients[i].department, patients[i].password);\n        }\n\n        doctorNaturalJoinPatientResult[] memory result = naturalJoin(registeredDoctors, registeredPatients);     \n        return result;\n    }\n\n    function naturalJoin(DoctorDetails[] memory left, PatientDetails[] memory right) public pure returns (doctorNaturalJoinPatientResult[] memory) {\n        uint leftLen = left.length;\n        uint rightLen = right.length;\n        uint resultLen = 0;\n        doctorNaturalJoinPatientResult[] memory result = new doctorNaturalJoinPatientResult[](leftLen + rightLen);\n        \n        for (uint i = 0; i < leftLen; i++) {\n            for (uint j = 0; j < rightLen; j++) {\n                if (keccak256(abi.encodePacked(left[i].department)) == keccak256(abi.encodePacked(right[j].department))) {\n                    result[resultLen].doctorID = left[i].id;\n                    result[resultLen].doctorName = left[i].name;\n                    result[resultLen].clinicName = left[i].clinicName;\n                    result[resultLen].patientID = right[j].id;\n                    result[resultLen].patientName = right[j].name;\n                    result[resultLen].department = right[j].department;\n                    resultLen++;\n                }\n            }\n        }\n\n        assembly {\n            mstore(result, resultLen)\n        }\n        return result;\n    }\n\n    function retrieveAllDiagnosisofPatientFromSpecificDate(address patientID, uint256 date) public view returns(Record[] memory) {\n        Patient patientContract = Patient(patientContractAddress);\n        Patient.Record[] memory records = patientContract.getRecords(patientID);\n        QueryManager.Record[] memory recordsFromSpecificDate = new QueryManager.Record[](records.length);\n        uint256 counter = 0;\n        for (uint256 i = 0; i < records.length; i++) {\n            if(records[i].timeAdded >= date) {\n                recordsFromSpecificDate[i] = QueryManager.Record(records[i].cid, records[i].patientId, records[i].doctorId, \n                                                             records[i].patientName, records[i].doctorName, records[i].symptoms,\n                                                             records[i].diagnostic, records[i].department, records[i].timeAdded);\n                counter++;\n            }\n        }\n        assembly {\n            mstore(recordsFromSpecificDate, counter)\n        }\n        return recordsFromSpecificDate;\n    }\n\n    function groupByClause(address patientID) public view returns(groupBy[] memory) {\n        Patient patientContract = Patient(patientContractAddress);\n        Patient.Record[] memory records = patientContract.getRecords(patientID);\n        QueryManager.groupBy[] memory recordsFromGroupByClause = new QueryManager.groupBy[](records.length);\n        uint256 counter = 0;\n\n        for (uint256 i = 0; i < records.length; i++) {\n            uint dummyCount = 0;\n            if(records[i].patientId == patientID) {\n                if(countHelper[records[i].doctorName] == 0) {\n                    dummyCount += 1;\n                } else {\n                    dummyCount = dummyCount + countHelper[records[i].doctorName] + 1; \n                }\n            }\n            recordsFromGroupByClause[i] = QueryManager.groupBy(dummyCount, records[i].doctorName);\n            counter++;\n        }\n        assembly {\n            mstore(recordsFromGroupByClause, counter)\n        }\n        return recordsFromGroupByClause;\n    } \n}\n",
  "sourcePath": "/home/suvam/Documents/ProjectIntegrated/finaldApp/truffle/contracts/QueryManager.sol",
  "compiler": {
    "name": "solc",
    "version": "0.8.17+commit.8df45f5f.Emscripten.clang"
  },
  "schemaVersion": "3.4.10",
  "updatedAt": "2023-03-29T10:44:56.986Z",
  "devdoc": {
    "kind": "dev",
    "methods": {},
    "version": 1
  },
  "userdoc": {
    "kind": "user",
    "methods": {},
    "version": 1
  }
}