{
  "contractName": "EHR",
  "abi": [
    {
      "anonymous": false,
      "inputs": [
        {
          "indexed": true,
          "internalType": "address",
          "name": "doctorId",
          "type": "address"
        }
      ],
      "name": "DoctorAdded",
      "type": "event"
    },
    {
      "anonymous": false,
      "inputs": [
        {
          "indexed": true,
          "internalType": "address",
          "name": "patientId",
          "type": "address"
        }
      ],
      "name": "PatientAdded",
      "type": "event"
    },
    {
      "anonymous": false,
      "inputs": [
        {
          "indexed": true,
          "internalType": "string",
          "name": "cid",
          "type": "string"
        },
        {
          "indexed": false,
          "internalType": "address",
          "name": "patientId",
          "type": "address"
        },
        {
          "indexed": false,
          "internalType": "address",
          "name": "doctorId",
          "type": "address"
        }
      ],
      "name": "RecordAdded",
      "type": "event"
    },
    {
      "inputs": [
        {
          "internalType": "uint256",
          "name": "",
          "type": "uint256"
        }
      ],
      "name": "doctorArray",
      "outputs": [
        {
          "internalType": "address",
          "name": "",
          "type": "address"
        }
      ],
      "stateMutability": "view",
      "type": "function",
      "constant": true
    },
    {
      "inputs": [
        {
          "internalType": "address",
          "name": "",
          "type": "address"
        }
      ],
      "name": "doctors",
      "outputs": [
        {
          "internalType": "string",
          "name": "name",
          "type": "string"
        },
        {
          "internalType": "string",
          "name": "password",
          "type": "string"
        }
      ],
      "stateMutability": "view",
      "type": "function",
      "constant": true
    },
    {
      "inputs": [
        {
          "internalType": "uint256",
          "name": "",
          "type": "uint256"
        }
      ],
      "name": "patientArray",
      "outputs": [
        {
          "internalType": "address",
          "name": "",
          "type": "address"
        }
      ],
      "stateMutability": "view",
      "type": "function",
      "constant": true
    },
    {
      "inputs": [
        {
          "internalType": "address",
          "name": "",
          "type": "address"
        }
      ],
      "name": "patients",
      "outputs": [
        {
          "internalType": "address",
          "name": "id",
          "type": "address"
        },
        {
          "internalType": "string",
          "name": "password",
          "type": "string"
        }
      ],
      "stateMutability": "view",
      "type": "function",
      "constant": true
    },
    {
      "inputs": [
        {
          "internalType": "string",
          "name": "_cid",
          "type": "string"
        },
        {
          "internalType": "address",
          "name": "_patientId",
          "type": "address"
        },
        {
          "internalType": "string",
          "name": "_patientName",
          "type": "string"
        },
        {
          "internalType": "string",
          "name": "_doctorName",
          "type": "string"
        },
        {
          "internalType": "string",
          "name": "symptoms",
          "type": "string"
        },
        {
          "internalType": "string",
          "name": "diagnostic",
          "type": "string"
        }
      ],
      "name": "addRecord",
      "outputs": [],
      "stateMutability": "nonpayable",
      "type": "function"
    },
    {
      "inputs": [
        {
          "internalType": "address",
          "name": "_patientId",
          "type": "address"
        }
      ],
      "name": "getRecords",
      "outputs": [
        {
          "components": [
            {
              "internalType": "string",
              "name": "cid",
              "type": "string"
            },
            {
              "internalType": "string",
              "name": "patientName",
              "type": "string"
            },
            {
              "internalType": "string",
              "name": "doctorName",
              "type": "string"
            },
            {
              "internalType": "string",
              "name": "symptoms",
              "type": "string"
            },
            {
              "internalType": "string",
              "name": "diagnostic",
              "type": "string"
            },
            {
              "internalType": "uint256",
              "name": "timeAdded",
              "type": "uint256"
            }
          ],
          "internalType": "struct EHR.Record[]",
          "name": "",
          "type": "tuple[]"
        }
      ],
      "stateMutability": "view",
      "type": "function",
      "constant": true
    }
  ],
  "bytecode": "0x608060405234801561001057600080fd5b5061141d806100206000396000f3fe608060405234801561001057600080fd5b50600436106100625760003560e01c80630869cfbc1461006757806314a1c03c146100985780638478ffb8146100b4578063a0076e84146100e4578063a9583c2214610114578063d84dd09514610145575b600080fd5b610081600480360381019061007c9190610abc565b610175565b60405161008f929190610b88565b60405180910390f35b6100b260048036038101906100ad9190610ced565b610241565b005b6100ce60048036038101906100c99190610e3c565b610443565b6040516100db9190610e69565b60405180910390f35b6100fe60048036038101906100f99190610abc565b610482565b60405161010b9190611044565b60405180910390f35b61012e60048036038101906101299190610abc565b6108d7565b60405161013c929190611066565b60405180910390f35b61015f600480360381019061015a9190610e3c565b610a0b565b60405161016c9190610e69565b60405180910390f35b60006020528060005260406000206000915090508060000160009054906101000a900473ffffffffffffffffffffffffffffffffffffffff16908060010180546101be906110cc565b80601f01602080910402602001604051908101604052809291908181526020018280546101ea906110cc565b80156102375780601f1061020c57610100808354040283529160200191610237565b820191906000526020600020905b81548152906001019060200180831161021a57829003601f168201915b5050505050905082565b60006040518060c001604052808881526020018681526020018581526020018481526020018381526020014281525090506000808773ffffffffffffffffffffffffffffffffffffffff1673ffffffffffffffffffffffffffffffffffffffff16815260200190815260200160002060020181908060018154018082558091505060019003906000526020600020906006020160009091909190915060008201518160000190816102f291906112a9565b50602082015181600101908161030891906112a9565b50604082015181600201908161031e91906112a9565b50606082015181600301908161033491906112a9565b50608082015181600401908161034a91906112a9565b5060a082015181600501555050856000808873ffffffffffffffffffffffffffffffffffffffff1673ffffffffffffffffffffffffffffffffffffffff16815260200190815260200160002060000160006101000a81548173ffffffffffffffffffffffffffffffffffffffff021916908373ffffffffffffffffffffffffffffffffffffffff1602179055506003869080600181540180825580915050600190039060005260206000200160009091909190916101000a81548173ffffffffffffffffffffffffffffffffffffffff021916908373ffffffffffffffffffffffffffffffffffffffff16021790555050505050505050565b6003818154811061045357600080fd5b906000526020600020016000915054906101000a900473ffffffffffffffffffffffffffffffffffffffff1681565b6060818073ffffffffffffffffffffffffffffffffffffffff166000808373ffffffffffffffffffffffffffffffffffffffff1673ffffffffffffffffffffffffffffffffffffffff16815260200190815260200160002060000160009054906101000a900473ffffffffffffffffffffffffffffffffffffffff1673ffffffffffffffffffffffffffffffffffffffff1614610554576040517f08c379a000000000000000000000000000000000000000000000000000000000815260040161054b906113c7565b60405180910390fd5b6000808473ffffffffffffffffffffffffffffffffffffffff1673ffffffffffffffffffffffffffffffffffffffff168152602001908152602001600020600201805480602002602001604051908101604052809291908181526020016000905b828210156108cb57838290600052602060002090600602016040518060c00160405290816000820180546105e8906110cc565b80601f0160208091040260200160405190810160405280929190818152602001828054610614906110cc565b80156106615780601f1061063657610100808354040283529160200191610661565b820191906000526020600020905b81548152906001019060200180831161064457829003601f168201915b5050505050815260200160018201805461067a906110cc565b80601f01602080910402602001604051908101604052809291908181526020018280546106a6906110cc565b80156106f35780601f106106c8576101008083540402835291602001916106f3565b820191906000526020600020905b8154815290600101906020018083116106d657829003601f168201915b5050505050815260200160028201805461070c906110cc565b80601f0160208091040260200160405190810160405280929190818152602001828054610738906110cc565b80156107855780601f1061075a57610100808354040283529160200191610785565b820191906000526020600020905b81548152906001019060200180831161076857829003601f168201915b5050505050815260200160038201805461079e906110cc565b80601f01602080910402602001604051908101604052809291908181526020018280546107ca906110cc565b80156108175780601f106107ec57610100808354040283529160200191610817565b820191906000526020600020905b8154815290600101906020018083116107fa57829003601f168201915b50505050508152602001600482018054610830906110cc565b80601f016020809104026020016040519081016040528092919081815260200182805461085c906110cc565b80156108a95780601f1061087e576101008083540402835291602001916108a9565b820191906000526020600020905b81548152906001019060200180831161088c57829003601f168201915b50505050508152602001600582015481525050815260200190600101906105b5565b50505050915050919050565b60016020528060005260406000206000915090508060000180546108fa906110cc565b80601f0160208091040260200160405190810160405280929190818152602001828054610926906110cc565b80156109735780601f1061094857610100808354040283529160200191610973565b820191906000526020600020905b81548152906001019060200180831161095657829003601f168201915b505050505090806001018054610988906110cc565b80601f01602080910402602001604051908101604052809291908181526020018280546109b4906110cc565b8015610a015780601f106109d657610100808354040283529160200191610a01565b820191906000526020600020905b8154815290600101906020018083116109e457829003601f168201915b5050505050905082565b60028181548110610a1b57600080fd5b906000526020600020016000915054906101000a900473ffffffffffffffffffffffffffffffffffffffff1681565b6000604051905090565b600080fd5b600080fd5b600073ffffffffffffffffffffffffffffffffffffffff82169050919050565b6000610a8982610a5e565b9050919050565b610a9981610a7e565b8114610aa457600080fd5b50565b600081359050610ab681610a90565b92915050565b600060208284031215610ad257610ad1610a54565b5b6000610ae084828501610aa7565b91505092915050565b610af281610a7e565b82525050565b600081519050919050565b600082825260208201905092915050565b60005b83811015610b32578082015181840152602081019050610b17565b60008484015250505050565b6000601f19601f8301169050919050565b6000610b5a82610af8565b610b648185610b03565b9350610b74818560208601610b14565b610b7d81610b3e565b840191505092915050565b6000604082019050610b9d6000830185610ae9565b8181036020830152610baf8184610b4f565b90509392505050565b600080fd5b600080fd5b7f4e487b7100000000000000000000000000000000000000000000000000000000600052604160045260246000fd5b610bfa82610b3e565b810181811067ffffffffffffffff82111715610c1957610c18610bc2565b5b80604052505050565b6000610c2c610a4a565b9050610c388282610bf1565b919050565b600067ffffffffffffffff821115610c5857610c57610bc2565b5b610c6182610b3e565b9050602081019050919050565b82818337600083830152505050565b6000610c90610c8b84610c3d565b610c22565b905082815260208101848484011115610cac57610cab610bbd565b5b610cb7848285610c6e565b509392505050565b600082601f830112610cd457610cd3610bb8565b5b8135610ce4848260208601610c7d565b91505092915050565b60008060008060008060c08789031215610d0a57610d09610a54565b5b600087013567ffffffffffffffff811115610d2857610d27610a59565b5b610d3489828a01610cbf565b9650506020610d4589828a01610aa7565b955050604087013567ffffffffffffffff811115610d6657610d65610a59565b5b610d7289828a01610cbf565b945050606087013567ffffffffffffffff811115610d9357610d92610a59565b5b610d9f89828a01610cbf565b935050608087013567ffffffffffffffff811115610dc057610dbf610a59565b5b610dcc89828a01610cbf565b92505060a087013567ffffffffffffffff811115610ded57610dec610a59565b5b610df989828a01610cbf565b9150509295509295509295565b6000819050919050565b610e1981610e06565b8114610e2457600080fd5b50565b600081359050610e3681610e10565b92915050565b600060208284031215610e5257610e51610a54565b5b6000610e6084828501610e27565b91505092915050565b6000602082019050610e7e6000830184610ae9565b92915050565b600081519050919050565b600082825260208201905092915050565b6000819050602082019050919050565b600082825260208201905092915050565b6000610ecc82610af8565b610ed68185610eb0565b9350610ee6818560208601610b14565b610eef81610b3e565b840191505092915050565b610f0381610e06565b82525050565b600060c0830160008301518482036000860152610f268282610ec1565b91505060208301518482036020860152610f408282610ec1565b91505060408301518482036040860152610f5a8282610ec1565b91505060608301518482036060860152610f748282610ec1565b91505060808301518482036080860152610f8e8282610ec1565b91505060a0830151610fa360a0860182610efa565b508091505092915050565b6000610fba8383610f09565b905092915050565b6000602082019050919050565b6000610fda82610e84565b610fe48185610e8f565b935083602082028501610ff685610ea0565b8060005b8581101561103257848403895281516110138582610fae565b945061101e83610fc2565b925060208a01995050600181019050610ffa565b50829750879550505050505092915050565b6000602082019050818103600083015261105e8184610fcf565b905092915050565b600060408201905081810360008301526110808185610b4f565b905081810360208301526110948184610b4f565b90509392505050565b7f4e487b7100000000000000000000000000000000000000000000000000000000600052602260045260246000fd5b600060028204905060018216806110e457607f821691505b6020821081036110f7576110f661109d565b5b50919050565b60008190508160005260206000209050919050565b60006020601f8301049050919050565b600082821b905092915050565b60006008830261115f7fffffffffffffffffffffffffffffffffffffffffffffffffffffffffffffffff82611122565b6111698683611122565b95508019841693508086168417925050509392505050565b6000819050919050565b60006111a66111a161119c84610e06565b611181565b610e06565b9050919050565b6000819050919050565b6111c08361118b565b6111d46111cc826111ad565b84845461112f565b825550505050565b600090565b6111e96111dc565b6111f48184846111b7565b505050565b5b818110156112185761120d6000826111e1565b6001810190506111fa565b5050565b601f82111561125d5761122e816110fd565b61123784611112565b81016020851015611246578190505b61125a61125285611112565b8301826111f9565b50505b505050565b600082821c905092915050565b600061128060001984600802611262565b1980831691505092915050565b6000611299838361126f565b9150826002028217905092915050565b6112b282610af8565b67ffffffffffffffff8111156112cb576112ca610bc2565b5b6112d582546110cc565b6112e082828561121c565b600060209050601f8311600181146113135760008415611301578287015190505b61130b858261128d565b865550611373565b601f198416611321866110fd565b60005b8281101561134957848901518255600182019150602085019450602081019050611324565b868310156113665784890151611362601f89168261126f565b8355505b6001600288020188555050505b505050505050565b7f50617469656e7420646f6573206e6f7420657869737400000000000000000000600082015250565b60006113b1601683610b03565b91506113bc8261137b565b602082019050919050565b600060208201905081810360008301526113e0816113a4565b905091905056fea26469706673582212205b7d5fe219caf3df4287099af857694781a8f7b40f9723ed8cbf1be1ae9783bb64736f6c63430008110033",
  "immutableReferences": {},
  "source": "// SPDX-License-Identifier: MIT\npragma solidity >=0.4.22 <0.9.0;\n\ncontract EHR { \n  \n  struct Record { \n    string cid;\n    // address patientId;\n    // address doctorId;\n    string patientName;\n    string doctorName;\n    string symptoms;\n    string diagnostic;\n    uint256 timeAdded;\n  }\n\n  struct Patient {\n    address id;\n    string password;\n    Record[] records;\n  }\n\n  struct Doctor {\n    string name;\n    string password;\n  }\n\n  mapping (address => Patient) public patients;\n  mapping (address => Doctor) public doctors;\n  address[] public doctorArray;\n  address[] public patientArray;\n\n  event PatientAdded(address indexed patientId);\n  event DoctorAdded(address indexed doctorId);\n  event RecordAdded(string indexed cid, address patientId, address doctorId); \n\n  // -------------------------------------------------------------------------------------------------------//\n\n  // // modifiers\n  // modifier senderExists {\n  //   require(doctors[msg.sender].id == msg.sender || patients[msg.sender].id == msg.sender, \"Sender does not exist\");\n  //   _;\n  // }\n\n  modifier patientExists(address patientId) {\n    require(patients[patientId].id == patientId, \"Patient does not exist\");\n    _;\n  }\n\n  // modifier senderIsDoctor {\n  //   require(doctors[msg.sender].id == msg.sender, \"Sender is not a doctor\");\n  //   _;\n  // }\n\n  // function addPatient(address _patientId) public senderIsDoctor{\n  //   require(patients[_patientId].id != _patientId, \"This patient already exists.\");\n  //   patients[_patientId].id = _patientId;\n  //   patientArray.push(_patientId);\n\n  //   emit PatientAdded(_patientId);\n  // }\n\n\n  // ---------------------------------------------------------------------------------------------- //\n\n\n\n\n  // function addDoctor() public {\n  //   require(doctors[msg.sender].id != msg.sender, \"This doctor already exists.\");\n  //   doctors[msg.sender].id = msg.sender;\n\n  //   emit DoctorAdded(msg.sender);\n  // }\n\n  // -------------------------------------------------///\n  // function addDoctor(address _doctorId, string memory _password) public {\n  //   require(doctors[_doctorId].id != _doctorId, \"This doctor already exists.\");\n  //   doctors[_doctorId].id = _doctorId;\n  //   doctors[_doctorId].password = _password;\n  //   doctorArray.push(_doctorId);\n  //   emit DoctorAdded(_doctorId);\n  // }\n\n  // ---------------------------------------------//\n\n  // // Refer to this functions afterwards\n  // function addRecord(string memory _cid, string _patientName, string _doctorName, string memory symptoms, string memory diagnostic) public senderIsDoctor patientExists(_patientId) {\n  //   Record memory record = Record(_cid, _patientName, _doctorName, symptoms, diagnostic, block.timestamp);\n  //   patients[_patientId].records.push(record);\n\n  //   // emit RecordAdded(_cid, _patientId, _doctorId);\n  // } \n\n  function addRecord(string memory _cid, address _patientId, string memory _patientName, string memory _doctorName, string memory symptoms, string memory diagnostic) public {\n    Record memory record = Record(_cid, _patientName, _doctorName, symptoms, diagnostic, block.timestamp);\n    patients[_patientId].records.push(record);\n    patients[_patientId].id = _patientId;\n    patientArray.push(_patientId);\n\n    // emit RecordAdded(_cid, _patientId, _doctorId);\n  } \n\n  function getRecords(address _patientId) public view  patientExists(_patientId) returns (Record[] memory) {\n    return patients[_patientId].records;\n  } \n\n  // function getSenderRole() public view returns (string memory) {\n  //   if (doctors[msg.sender].id == msg.sender) {\n  //     return \"doctor\";\n  //   } else if (patients[msg.sender].id == msg.sender) {\n  //     return \"patient\";\n  //   } else {\n  //     return \"unknown\";\n  //   }\n  // }\n\n\n  //////////////////////////////////////////////////////////////\n  // function checkDoctor(address _doctorId, string memory _password) public view returns (bool) {\n  //   return (doctors[_doctorId].id == _doctorId && keccak256(abi.encodePacked(doctors[_doctorId].password)) == keccak256(abi.encodePacked(_password))); \n  // }\n\n  // function getPatientExists(address _patientId) public view senderIsDoctor returns (bool) {\n  //   return patients[_patientId].id == _patientId;\n  // }\n\n  // function getRegisteredDoctors() public view returns(address [] memory) {\n  //   return doctorArray;\n  // }\n\n  // function getRegisteredPatients() public view returns(address [] memory) {\n  //   return patientArray;\n  // } \n  //////////////////////////////////////////////////////////////////////////////\n} \n\n// senderExists",
  "sourcePath": "/home/suvam/Desktop/Dapp/QEHR/truffle/contracts/EHR.sol",
  "compiler": {
    "name": "solc",
    "version": "0.8.17+commit.8df45f5f.Emscripten.clang"
  },
  "schemaVersion": "3.4.10",
  "updatedAt": "2022-11-15T08:42:29.918Z",
  "networkType": "ethereum",
  "devdoc": {
    "kind": "dev",
    "methods": {},
    "version": 1
  },
  "userdoc": {
    "kind": "user",
    "methods": {},
    "version": 1
  }
}